:020000040800F2
:1000000000000120252A00081128000817280008F0
:100010001D280008232800082928000800000000E7
:100020000000000000000000000000002F28000871
:100030003B2800080000000047280008532800085B
:100040006D2A00086D2A00086D2A00086D2A000834
:100050006D2A00086D2A00086D2A00086D2A000824
:100060006D2A00086D2A00086D2A00086D2A000814
:100070006D2A00086D2A00086D2A00086D2A000804
:100080006D2A00086D2A00086D2A00086D2A0008F4
:100090006D2A00086D2A00086D2A00085F280008F4
:1000A0006D2A00086D2A00086D2A00086D2A0008D4
:1000B0006D2A00086D2A00086D2A00086D2A0008C4
:1000C0006D2A00086D2A00086D2A00086D2A0008B4
:1000D0006D2A00086D2A00086D2A00086D2A0008A4
:1000E0006D2A00086D2A00086D2A00086D2A000894
:1000F0006D2A00086D2A00086D2A00086D2A000884
:100100006D2A00086D2A00086D2A00086D2A000873
:100110006D2A00086D2A00086D2A0008852800084D
:100120006D2A00086D2A00086D2A00086D2A000853
:1001300000000000000000000000000000000000BF
:1001400000000000000000000000000000000000AF
:10015000000000000000000000000000000000009F
:10016000000000000000000000000000000000008F
:10017000000000000000000000000000000000007F
:10018000000000000000000000000000000000006F
:10019000000000000000000000000000000000005F
:1001A000000000000000000000000000000000004F
:1001B000000000000000000000000000000000003F
:1001C000000000000000000000000000000000002F
:1001D000000000000000000000000000000000001F
:0401E0005FF8E0F1F3
:1001E80010B5054C237833B9044B13B10448AFF369
:1001F80000800123237010BDE001002000000000F2
:1002080054C4000808B5034B1BB103490348AFF3B6
:10021800008008BD00000000E401002054C400086C
:1002280010F8012B11F8013B012A28BF9A42F7D098
:10023800D01A7047034613F8012B002AFBD1181A6D
:100248000138704781F0004102E000BF83F00043AD
:1002580030B54FEA41044FEA430594EA050F08BF59
:1002680090EA020F1FBF54EA000C55EA020C7FEA1D
:10027800645C7FEA655C00F0E2804FEA5454D4EB9A
:100288005555B8BF6D420CDD2C4480EA020281EA64
:10029800030382EA000083EA010180EA020281EA9C
:1002A8000303362D88BF30BD11F0004F4FEA0131EE
:1002B8004FF4801C4CEA113102D0404261EB4101FD
:1002C80013F0004F4FEA03334CEA133302D0524283
:1002D80063EB430394EA050F00F0A780A4F101043F
:1002E800D5F1200E0DDB02FA0EFC22FA05F2801879
:1002F80041F1000103FA0EF2801843FA05F359415F
:100308000EE0A5F120050EF1200E012A03FA0EFCDD
:1003180028BF4CF0020C43FA05F3C01851EBE37107
:1003280001F0004507D54FF0000EDCF1000C7EEB24
:1003380000006EEB0101B1F5801F1BD3B1F5001F62
:100348000CD349085FEA30004FEA3C0C04F1010481
:100358004FEA445212F5800F80F09A80BCF1004FAA
:1003680008BF5FEA500C50F1000041EB045141EA2C
:10037800050130BD5FEA4C0C404141EB0101013CF5
:1003880028BFB1F5801FE9D291F0000F04BF0146E4
:100398000020B1FA81F308BF2033A3F10B03B3F1B6
:1003A80020020CDA0C3208DD02F1140CC2F10C0246
:1003B80001FA0CF021FA02F10CE002F11402D8BFA4
:1003C800C2F1200C01FA02F120FA0CFCDCBF41EA70
:1003D8000C019040E41AA2BF01EB0451294330BD3F
:1003E8006FEA04041F3C1CDA0C340EDC04F114041C
:1003F800C4F1200220FA04F001FA02F340EA0300F3
:1004080021FA04F345EA030130BDC4F10C04C4F138
:10041800200220FA02F001FA04F340EA0300294618
:1004280030BD21FA04F0294630BD94F0000F83F462
:10043800801306BF81F480110134013D4EE77FEA45
:10044800645C18BF7FEA655C29D094EA050F08BF91
:1004580090EA020F05D054EA000C04BF1946104672
:1004680030BD91EA030F1EBF0021002030BD5FEAB6
:10047800545C05D14000494128BF41F0004130BDDE
:1004880014F580043CBF01F5801130BD01F0004532
:1004980045F0FE4141F470014FF0000030BD7FEAA5
:1004A800645C1ABF194610467FEA655C1CBF0B46A0
:1004B800024650EA013406BF52EA033591EA030FB7
:1004C80041F4002130BD00BF90F0000F04BF0021AF
:1004D800704730B54FF4806404F132044FF00005E2
:1004E8004FF0000150E700BF90F0000F04BF00215B
:1004F800704730B54FF4806404F1320410F00045C1
:1005080048BF40424FF000013EE700BF42004FEABB
:10051800E2014FEA31014FEA02701FBF12F07F4338
:1005280093F07F4F81F06051704732F07F4208BFEF
:10053800704793F07F4F04BF41F40021704730B5F6
:100548004FF4607401F0004521F000411CE700BF42
:1005580050EA010208BF704730B54FF000050AE0C5
:1005680050EA010208BF704730B511F0004502D5C6
:10057800404261EB41014FF4806404F132045FEAC8
:10058800915C3FF4D8AE4FF003025FEADC0C18BF71
:1005980003325FEADC0C18BF033202EBDC02C2F163
:1005A800200300FA03FC20FA02F001FA03FE40EAF5
:1005B8000E0021FA02F11444BDE600BF70B54FF0F9
:1005C800FF0C4CF4E06C1CEA11541DBF1CEA1355D7
:1005D80094EA0C0F95EA0C0F00F0DEF82C4481EA3F
:1005E800030621EA4C5123EA4C5350EA013518BF5F
:1005F80052EA033541F4801143F4801338D0A0FB4C
:1006080002CE4FF00005E1FB02E506F00042E0FBF8
:1006180003E54FF00006E1FB03569CF0000F18BFFE
:100628004EF0010EA4F1FF04B6F5007F64F54074A6
:1006380004D25FEA4E0E6D4146EB060642EAC62139
:1006480041EA55514FEAC52040EA5E504FEACE2EA6
:10065800B4F1FD0C88BFBCF5E06F1ED8BEF1004FA9
:1006680008BF5FEA500E50F1000041EB045170BD25
:1006780006F0004646EA010140EA020081EA030169
:10068800B4EB5C04C2BFD4EB0C0541EA045170BD65
:1006980041F480114FF0000E013C00F3AB8014F1DF
:1006A800360FDEBF002001F0004170BDC4F1000428
:1006B800203C35DA0C341BDC04F11404C4F12005A9
:1006C80000FA05F320FA04F001FA05F240EA020004
:1006D80001F0004221F0004110EBD37021FA04F63A
:1006E80042EB06015EEA430E08BF20EAD37070BDF4
:1006F800C4F10C04C4F1200500FA04F320FA05F053
:1007080001FA04F240EA020001F0004110EBD37054
:1007180041F100015EEA430E08BF20EAD37070BDC4
:10072800C4F1200500FA05F24EEA020E20FA04F39D
:1007380001FA05F243EA020321FA04F001F000414C
:1007480021FA04F220EA020000EBD3705EEA430EBD
:1007580008BF20EAD37070BD94F0000F0FD101F0EC
:100768000046400041EB010111F4801F08BF013C25
:10077800F7D041EA060195F0000F18BF704703F063
:100788000046520043EB030313F4801F08BF013DEA
:10079800F7D043EA0603704794EA0C0F0CEA1355A6
:1007A80018BF95EA0C0F0CD050EA410618BF52EA60
:1007B8004306D1D181EA030101F000414FF0000066
:1007C80070BD50EA410606BF1046194652EA430674
:1007D80019D094EA0C0F02D150EA013613D195EAE8
:1007E8000C0F05D152EA03361CBF104619460AD130
:1007F80081EA030101F0004141F0FE4141F470013A
:100808004FF0000070BD41F0FE4141F4780170BD29
:1008180070B54FF0FF0C4CF4E06C1CEA11541DBF8E
:100828001CEA135594EA0C0F95EA0C0F00F0A7F890
:10083800A4EB050481EA030E52EA03354FEA0131BD
:1008480000F088804FEA03334FF0805545EA1313D0
:1008580043EA12634FEA022245EA111545EA106598
:100868004FEA00260EF000419D4208BF964244F12F
:10087800FD0404F5407402D25B084FEA3202B61A4E
:1008880065EB03055B084FEA32024FF480104FF422
:10089800002CB6EB020E75EB030E22BFB61A754696
:1008A80040EA0C005B084FEA3202B6EB020E75EB29
:1008B800030E22BFB61A754640EA5C005B084FEA91
:1008C8003202B6EB020E75EB030E22BFB61A75465E
:1008D80040EA9C005B084FEA3202B6EB020E75EB69
:1008E800030E22BFB61A754640EADC0055EA060E2A
:1008F80018D04FEA051545EA16754FEA06164FEA6D
:10090800C30343EA52734FEAC2025FEA1C1CC0D118
:1009180011F4801F0BD141EA00014FF000004FF0A5
:10092800004CB6E711F4801F04BF01430020B4F166
:10093800FD0C88BFBCF5E06F3FF6AFAEB5EB030C1E
:1009480004BFB6EB020C5FEA500C50F1000041EB1B
:10095800045170BD0EF0004E4EEA113114EB5C04E8
:10096800C2BFD4EB0C0541EA045170BD41F48011BB
:100978004FF0000E013C90E645EA060E8DE60CEAC3
:10098800135594EA0C0F08BF95EA0C0F3FF43BAFE0
:1009980094EA0C0F0AD150EA01347FF434AF95EA97
:1009A8000C0F7FF425AF104619462CE795EA0C0F7B
:1009B80006D152EA03353FF4FDAE1046194622E748
:1009C80050EA410618BF52EA43067FF4C5AE50EA22
:1009D80041047FF40DAF52EA43057FF4EBAE12E712
:1009E8004FF0FF3C06E000BF4FF0010C02E000BFF3
:1009F8004FF0010C4DF804CD4FEA410C7FEA6C5CD6
:100A08004FEA430C18BF7FEA6C5C1BD001B050EA78
:100A1800410C0CBF52EA430C91EA030F02BF90EA63
:100A2800020F0020704710F1000F91EA030F58BF22
:100A3800994208BF90422CBFD8176FEAE37040F084
:100A4800010070474FEA410C7FEA6C5C02D150EA22
:100A5800013C07D14FEA430C7FEA6C5CD6D152EADD
:100A6800033CD3D05DF8040B704700BF84461046A2
:100A780062468C461946634600E000BF01B5FFF7A1
:100A8800B7FF002848BF10F1000F01BD4DF808ED71
:100A9800FFF7F4FF0CBF012000205DF808FB00BF42
:100AA8004DF808EDFFF7EAFF34BF012000205DF89C
:100AB80008FB00BF4DF808EDFFF7E0FF94BF0120E9
:100AC80000205DF808FB00BF4DF808EDFFF7CEFFEA
:100AD80094BF012000205DF808FB00BF4DF808ED29
:100AE800FFF7C4FF34BF012000205DF808FB00BFFA
:100AF8004FEA410C7FEA6C5C02D150EA013C0AD112
:100B08004FEA430C7FEA6C5C02D152EA033C02D103
:100B18004FF0000070474FF0010070474FEA410264
:100B280012F5001215D211D56FF47873B3EB625237
:100B380012D94FEAC12343F0004343EA505311F05E
:100B4800004F23FA02F018BF404270474FF00000F0
:100B5800704750EA013005D111F0004008BF6FF02E
:100B6800004070474FF00000704700BF4A0011D2A4
:100B780012F5001211D20DD56FF47873B3EB6252EF
:100B88000ED44FEAC12343F0004343EA505323FAFB
:100B980002F070474FF00000704750EA013002D170
:100BA8004FF0FF3070474FF0000070474FEA4102A6
:100BB800B2F1E04324BFB3F5001CDCF1FE5C0DD9B3
:100BC80001F0004C4FEAC0024CEA5070B2F1004FFD
:100BD80040EB830008BF20F00100704711F0804F00
:100BE80021D113F13872BCBF01F00040704741F4C5
:100BF80080114FEA5252C2F11802C2F1200C10FAC9
:100C08000CF320FA02F018BF40F001004FEAC123AC
:100C18004FEAD32303FA0CFC40EA0C0023FA02F350
:100C28004FEA4303CCE77FEA625307D150EA013326
:100C38001EBF4FF0FE4040F44000704701F00040F6
:100C480040F0FE4040F40000704700BF38B505464C
:100C58000C460022002328462146FFF721FF28B929
:100C680028462146BDE8384000F00AB8284604F175
:100C7800004100F005F8404261EB410138BD00BF7A
:100C8800D0B500220B4B06460F46FFF797FCFFF73F
:100C98006DFF0446FFF718FC0022074BFFF78EFC98
:100CA80002460B4630463946FFF7D0FAFFF75EFF9B
:100CB8002146D0BD0000F03D0000F04180B58AB06B
:100CC80000AF06237B8406233B840023FB84002398
:100CD800FB830023BB834FF6FF73BB8400237B6138
:100CE800A04B1B887B84A04B1B883B8400237B6024
:100CF8009C4BFB6001233B617B8C4FF6FF72934258
:100D08000BD0B3F5803F80F29681002B00F0F8807D
:100D18004EF6EE62934250D08DE13B8C002B16D1FB
:100D2800904800F0A9F90346002B40F08E8107F1A6
:100D380014023B1D1146184602F014F90346FB76CF
:100D4800FB7E002B00F08181FB7E9BB285E13B8C12
:100D58004EF6EE62934225D1824800F08DF90346A3
:100D6800002B0ED107F114023B1D1146184602F064
:100D7800F9F80346FB76FB7E002B02D0FB7E9BB284
:100D88006BE14FF000024FF000037749012001F0BA
:100D9800A1FF0346FB76FB7E002B00F05681FB7E0D
:100DA8009BB25AE100F0FAF90346FB76FB7E002B72
:100DB80000F04B81FB7E9BB24FE13B8C002B63D153
:100DC8000023FB8430E0694B1B889AB2FB8C68498E
:100DD80031F813309A4201D1FB8CBB84FA8CB7F9F5
:100DE80024309A421DD0FB8C614A32F81330614995
:100DF800184600F067F90346BB83BB8B012B10D064
:100E0800FB8C5B4A32F813305A4A1288114618464E
:100E180000F058FA0346FB83FB8B002B01D0FB8BB9
:100E28001BE1FB8C0133FB84FB8C022BCBD94FF0ED
:100E380000024FF000034B49012001F04BFF03462D
:100E4800FB76FB7E002B02D0FB7E9BB205E10023E4
:100E58007B60454BFB6001233B61434800F00CF984
:100E68000346002B40F0F38007F114023B1D1146A6
:100E7800184602F077F80346FB76FB7E002B00F05D
:100E8800E680FB7E9BB2E8E03B8C4FF6FF72934214
:100E98002BD100237B60344BFB6001233B6132483C
:100EA80000F0EAF80346002B0ED107F114023B1DAF
:100EB8001146184602F056F80346FB76FB7E002BD7
:100EC80002D0FB7E9BB2C8E04FF000024FF0000357
:100ED8002449012001F0FEFE0346FB76FB7E002B31
:100EE80000F0B580FB7E9BB2B7E000F057F90346EF
:100EF800FB76FB7E002B00F0AA80FB7E9BB2ACE069
:100F08003B8C002B0AD100F049F90346FB76FB7EA7
:100F1800002B00F09E80FB7E9BB29EE03B8C4FF640
:100F2800FF7293421BD100237B600F4BFB600123B0
:100F38003B610D4800F0A0F80346002B40F0898083
:100F480007F114023B1D1146184602F00BF8034640
:100F5800FB76FB7E002B7CD0FB7E9BB27DE00023E2
:100F6800FB843AE000800008008001080680000841
:100F780000020020FC0100203A4B1B889AB2FB8C2F
:100F8800394931F813309A4201D1FB8CBB84FA8C71
:100F9800B7F924309A421DD0FB8C334A32F813300B
:100FA8003249184600F08EF80346BB83BB8B012BF1
:100FB80010D0FB8C2C4A32F813302C4A1288114678
:100FC800184600F07FF90346FB83FB8B002B01D00A
:100FD800FB8B42E0FB8C0133FB84FB8C022BCBD9CF
:100FE8004FF000024FF000032149012001F072FE8A
:100FF8000346FB76FB7E002B02D0FB7E9BB22CE0E7
:1010080000237B601B4BFB6001233B61194800F008
:1010180033F80346002B1CD107F114023B1D11467F
:10102800184601F09FFF0346FB76FB7E002B10D08D
:10103800FB7E9BB211E000F0B1F80346FB76FB7E25
:10104800002B08D0FB7E9BB207E000BF04E000BF86
:1010580002E000BF00E000BF002318462837BD4665
:1010680080BD00BF0680010800020020FC010020AE
:10107800008001080080000880B485B000AF786067
:101088000123FB6045F255537B810DE07B681B888B
:101098007B817B894FF6FF72934202D00023FB606D
:1010A80006E07B6804337B607B68054A9342EDD396
:1010B800FB689BB218461437BD4680BC704700BF1A
:1010C8000088000880B586B000AF03463960FB8011
:1010D8000023FB8145F25553BB810123FB821C4B46
:1010E8003B611B4BBB60002000F0A8F80346FB8166
:1010F800FB89AB2B01D1AB2325E0FB8903F58033BA
:101108001033DB02BB60FB890133DA02114B134455
:101118003B6112E03B691B88BB81BA89FB889A4214
:1011280008D13B69023B1B889AB23B681A800023AE
:10113800FB8207E03B69043B3B61BB6802333A69C9
:101148009A42E7D8FB8A18461837BD4680BD00BFCB
:1011580000800008FE7F000880B584B000AF034619
:101168000A46FB801346BB800023FB81BA88FB88B4
:101178001146184600F0A6F80346FB81FB89802B30
:1011880007D1BA88FB881146184600F0FDF80346D7
:10119800FB81FB8918461037BD4680BD80B586B0F7
:1011A80000AF0023FB7500233B6100233B60214B0C
:1011B800BB600123FB601F48FFF75EFF0346002B5F
:1011C8000DD107F110023B461146184601F0CAFE40
:1011D8000346FB75FB7D002B01D0FB7D25E04FF01E
:1011E80000024FF000031349012001F073FD03468C
:1011F800FB75FB7D002B01D0FB7D16E00E4BBB6021
:101208000D48FFF739FF0346002B0DD107F11002F7
:101218003B461146184601F0A5FE0346FB75FB7DCB
:10122800002B01D0FB7D00E0002318461837BD468F
:1012380080BD00BF008000080080010880B485B030
:1012480000AF0346FB710623FB810623BB811B4BC2
:101258001B88FB811A4B1B88BB81FB79002B1BD099
:10126800012B25D1BB89002B08D1FB894EF6EE62F4
:10127800934201D100231CE040231AE0FB89002B94
:1012880008D1BB894EF6EE62934201D1402310E0AB
:1012980000230EE0AB230CE0FB89002B01D10023D7
:1012A80007E0BB89002B01D1402302E0AB2300E01B
:1012B800002318461437BD4680BC704700800008DC
:1012C800008001082DE9B04386B000AF03460A4606
:1012D800FB801346BB800023FB7400233B82274B13
:1012E8007B61274BFB600120FFF7A8FF03463B8289
:1012F8003B8AAB2B01D1AB233BE03B8A03F5803320
:101308001033DB027B613B8A0133DA021D4B134445
:10131800FB6029E07B691B68B3F1FF3F21D1BB88E3
:1013280000221C46154622462B467969012001F009
:10133800D1FC0346FB74FB7C002B02D0FB7C9BB2E8
:1013480017E07B69991CFB88002298469146424623
:101358004B46012001F0BEFC0346FB74FB7C9BB2AC
:1013680007E07B6904337B617A69FB689A42D1D3D1
:10137800802318461837BD46BDE8B08300800008B2
:1013880000880008FF7F000880B58CB000AF0346D6
:101398000A46FB801346BB80002387F82530534B51
:1013A800FB620023BB6200237B840023FB840023B1
:1013B8003B840023FB830023BB610020FFF73EFF33
:1013C80003467B847B8C402B04D1484BFB62484B03
:1013D800BB6209E07B8C002B04D1454BFB62434B7D
:1013E800BB6201E0AB237CE04EF6EE624FF00003F7
:1013F800F96A012001F06EFC034687F8253097F85A
:101408002530002B03D097F825309BB269E0BA88C5
:10141800FB8811461846FFF755FF03463B843B8C73
:10142800002B01D03B8C5CE00023FB8427E0FB8C85
:10143800304A32F81330FA889A421DD0FB8C2D4A74
:1014480032F813302C491846FFF73CFE0346FB835D
:10145800FB8B012B10D0FB8C264A32F81330264A1E
:10146800128811461846FFF72DFF03463B843B8C34
:10147800002B01D03B8C34E0FB8C0133FB84FB8CCC
:10148800022BD4D90023BB60BB6A3B6101237B617B
:1014980007F1180207F108031146184601F062FD2A
:1014A800034687F8253097F82530002B03D097F8A6
:1014B80025309BB215E04FF000024FF00003F96AA7
:1014C800012001F007FC034687F8253097F82530FE
:1014D800002B03D097F825309BB202E097F825300F
:1014E8009BB218463037BD4680BD00BF008000085B
:1014F8000080010800020020FC01002080B500AF38
:1015080001224FF40071054801F07FFF00224FF4DB
:101518000071024801F079FF00BF80BD001401404E
:1015280080B483B000AF00237B6003E000BF7B681A
:1015380001337B607B6841F287329342F6D900BF62
:1015480000BF0C37BD4680BC704780B500AF012096
:1015580000F06EF800BF80BD80B584B000AF0346D0
:101568003A60FB710B46BB713868FEF763FEB860E2
:10157800FB79002B06D1BB79803BDBB2184600F023
:1015880057F805E0BB79403BDBB2184600F050F84D
:101598000023FB6009E03A68FB6813441B7818468F
:1015A80000F068F8FB680133FB60FA68BB689A4290
:1015B800F1D300BF00BF1037BD4680BD80B582B0F3
:1015C80000AF0346FB71FB7903F00103DBB21A4657
:1015D8004FF48061154801F018FFFB795B08DBB216
:1015E80003F00103DBB21A464FF400610F4801F023
:1015F8000CFFFB799B08DBB203F00103DBB21A4650
:101608004FF48051094801F000FFFB79DB08DBB299
:1016180003F00103DBB21A464FF40051034801F00E
:10162800F4FE00BF0837BD4680BD00BF001401406E
:1016380080B582B000AF0346FB71FFF771FF00224F
:101648004FF480710A4801F0E0FEFB791B09DBB218
:101658001846FFF7B3FFFFF751FFFB791846FFF76E
:10166800ADFFFFF74BFF00BF0837BD4680BD00BF89
:101678000014014080B582B000AF0346FB71FFF74C
:101688004FFF01224FF480710A4801F0BEFEFB793A
:101698001B09DBB21846FFF791FFFFF72FFFFB7915
:1016A8001846FFF78BFFFFF729FF00BF0837BD4635
:1016B80080BD00BF0014014080B500AF0F2001F0CD
:1016C80005FA0320FFF77AFFFFF718FF052001F05E
:1016D800FDF9FFF713FFC82001F0F8F9FFF70EFF37
:1016E800012001F0F3F90220FFF768FFFFF706FF7A
:1016F8002820FFF79DFF282001F0E8F90620FFF7D2
:1017080097FF0C20FFF794FF00BF80BD80B582B023
:1017180000AFB64B1B680133B44A136001220421A1
:10172800B34801F072FE00220821B14801F06DFEB5
:1017380000221021AE4801F068FE00222021AC48AA
:1017480001F063FE4021AA4801F048FE0346012B40
:101758000DD131233B603A68A649A74807F0BAF88B
:10176800A54A00210120FFF7F7FE3123B2E18021CD
:101778009F4801F033FE0346012B0DD134233B6013
:101788003A689C499C4807F0A5F89B4A002101202B
:10179800FFF7E2FE34239DE14FF48071944801F095
:1017A8001DFE0346012B0DD137233B603A68914952
:1017B800914807F08FF8904A00210120FFF7CCFEEE
:1017C800372387E14FF40071894801F007FE03468B
:1017D800012B0DD12A233B603A688649864807F0D9
:1017E80079F8854A00210120FFF7B6FE2A2371E126
:1017F800002204217E4801F008FE012208217C48CD
:1018080001F003FE00221021794801F0FEFD0022BC
:101818002021774801F0F9FD4021754801F0DEFDEF
:101828000346012B0DD132233B603A687149724857
:1018380007F050F8704A00210120FFF78DFE32238F
:1018480048E180216A4801F0C9FD0346012B0DD10A
:1018580035233B603A686749674807F03BF8664AB2
:1018680000210120FFF778FE352333E14FF4807122
:101878005F4801F0B3FD0346012B0DD138233B60CF
:101888003A685C495C4807F025F85B4A002101206A
:10189800FFF762FE38231DE14FF40071544801F050
:1018A8009DFD0346012B0DD130233B603A68514919
:1018B800514807F00FF8504A00210120FFF74CFE6D
:1018C800302307E100220421494801F09EFD00224F
:1018D8000821474801F099FD01221021444801F0F0
:1018E80094FD00222021424801F08FFD402140480C
:1018F80001F074FD0346012B0DD133233B603A6898
:101908003C493D4806F0E6FF3B4A00210120FFF72D
:1019180023FE3323DEE08021354801F05FFD0346D6
:10192800012B0DD136233B603A683249324806F024
:10193800D1FF314A00210120FFF70EFE3623C9E00E
:101948004FF480712A4801F049FD0346012B0DD15F
:1019580039233B603A682749274806F0BBFF264AE7
:1019680000210120FFF7F8FD0923B3E04FF40071CF
:101978001F4801F033FD0346012B0DD123233B60A3
:101988003A681C491C4806F0A5FF1B4A00210120A3
:10199800FFF7E2FD23239DE000220421144801F013
:1019A80034FD00220821124801F02FFD00221021E9
:1019B8000F4801F02AFD012220210D4801F025FDE4
:1019C80040210B4801F00AFD0346012B16D14123A3
:1019D8003B603A680749084806F07CFF064A002140
:1019E8000120FFF7B9FD412374E000BFD4030020B4
:1019F800001C014070C40008D8030020802137482B
:101A080001F0ECFC0346012B0DD142233B603A6800
:101A18003349344806F05EFF324A00210120FFF7BF
:101A28009BFD422356E04FF480712C4801F0D6FC10
:101A38000346012B0DD143233B603A6828492948C6
:101A480006F048FF274A00210120FFF785FD4323C0
:101A580040E04FF40071214801F0C0FC0346012B1F
:101A68000DD144233B603A681D491E4806F032FFF9
:101A78001C4A00210120FFF76FFD44232AE00122C0
:101A88000421164801F0C1FC01220821134801F085
:101A9800BCFC01221021114801F0B7FC01222021D1
:101AA8000E4801F0B2FC104B1B68042B12D1002326
:101AB8007B6009E00B4A7B68134400221A700A4BCA
:101AC8001B680133084A13607B68032BF2DD064B61
:101AD80000221A6018460837BD4680BD001C014028
:101AE80070C40008D8030020D403002090B5B3B018
:101AF80002AF00F0B9FF00F061F900F073FB00F0ED
:101B080019FA00F061FA00F07FFA00F041FB05F0E5
:101B180065FE00F0B3F900F0DFF901F04BF9FFF7CB
:101B2800CDF8012204219B4801F06FFC0122082115
:101B3800984801F06AFC01221021964801F065FCE2
:101B480001222021934801F060FC934A07F18003A9
:101B580007CA03C31A7007F189031F220021184618
:101B680006F03EF88D4A07F1580392E8030083E82F
:101B7800030007F1600320220021184606F030F820
:101B8800874A07F1300307CA03C31A800233120CCD
:101B98001A7007F13B031D220021184606F020F8B1
:101BA8000023C7F8B83000F05FFF00F007F900F035
:101BB80019FB00224FF47C517A4801F026FCFFF70C
:101BC8007BFDFFF7C2FC07F180031A4600210020C5
:101BD800FFF7C2FC07F158031A4600210120FFF75E
:101BE800BBFCFFF793FD034687F8B7304FF47A70D4
:101BF80000F06CFFFFF7A9FC97F8B730012B02D073
:101C0800022B2FD081E007F130031A460021002073
:101C1800FFF7A2FC1CE0FFF779FD0346194607F120
:101C28002C02D7F8B83013440A461A70D7F8B830DF
:101C380098B207F12C02D7F8B83013441B789BB23E
:101C48001946FFF789FAD7F8B8300133C7F8B83022
:101C5800D7F8B830042BDED10A2000F037FFFFF7A1
:101C680074FC52E007F130031A4600210020FFF708
:101C780073FC002387F8BF3023E097F8BF40FFF7D5
:101C880045FD03461A4604F1C0033B4403F8A02C63
:101C980097F8BF3098B297F8BF3007F11C02134489
:101CA8001946FFF70FFA03461A4697F8BF30D2B223
:101CB800C0333B4403F8982C97F8BF30013387F8BA
:101CC800BF3097F8BF30032BD7D907F1280207F1A7
:101CD800200311461846FEF7A3FAC7F8B000FFF72D
:101CE80034FCD7F8B030012B05D12F4A0021002051
:101CF800FFF732FC08E0D7F8B030002B04D12B4AAC
:101D080000210020FFF728FC00BF40F6B83000F0A3
:101D1800DDFEFFF71AFC07F1A80300221946244844
:101D280002F010FC07F1AC0300221946204802F02B
:101D380097FDFFF70AFC97F8A8301A4697F8A930DC
:101D4800194697F8AA30381D00930B46194906F032
:101D5800C1FD3B1D1A4600210020FFF7FDFB97F847
:101D6800AF301A4697F8AD30194697F8AE3007F1FC
:101D7800100000930B46104906F0ACFD07F1100364
:101D88001A4600210120FFF7E7FB4FF47A7000F0B4
:101D98009DFE16E7001C0140B0C40008D8C4000826
:101DA80000C500080014014074C400087CC4000881
:101DB800B002002088C400089CC4000880B596B012
:101DC80000AF07F1300328220021184605F008FF6C
:101DD80007F11C0300221A605A609A60DA601A61DF
:101DE8003B1D00221A605A609A60DA601A615A61D3
:101DF80009233B634FF480337B630023BB630123D8
:101E08003B640123BB640223FB644FF480333B65CE
:101E18004FF4E0137B6507F13003184601F080FCAE
:101E28000346002B01D000F0ADFA0F23FB6102231B
:101E38003B6200237B624FF48063BB620023FB623A
:101E480007F11C030221184601F0ECFE0346002BA3
:101E580001D000F097FA01237B604FF40073BB6058
:101E68003B1D184602F0A6F80346002B01D000F0EF
:101E780089FA00BF5837BD4680BD000080B500AF65
:101E8800124B134A1A60114B124A5A600F4B002228
:101E98009A600E4B0022DA600C4B4FF480421A61B4
:101EA8000A4B00225A61094B00229A61074B002213
:101EB800DA61064B00221A62044801F0E1FA03468F
:101EC800002B01D000F05EFA00BF80BD08020020A0
:101ED80000540040801A060080B500AF124B134A28
:101EE8001A60114B124A5A600F4B00229A600E4B2F
:101EF8000022DA600C4B4FF480421A610A4B002230
:101F08005A61094B00229A61074B0022DA61064B9D
:101F180000221A62044801F0B3FA0346002B01D0EC
:101F280000F030FA00BF80BD5C020020005800407D
:101F3800801A060080B582B000AF3B1D00210A461A
:101F48001A800A469A7000233B601D4B1D4A1A608E
:101F58001B4B4FF0FF325A60194B4FF480729A6056
:101F6800174802F0C1F90346002B01D000F00AFA25
:101F780012233B7114237B711723BB713B1D012274
:101F880019460F4802F046FA0346002B01D000F02C
:101F9800F9F901233B7001237B700123BB702223D5
:101FA800FB703B4601221946054802F0A3FB034695
:101FB800002B01D000F0E6F900BF0837BD4680BD10
:101FC800B00200200028004080B400AF0C4B0D4A3E
:101FD8001A600B4B00225A60094B00229A60084B8A
:101FE8000022DA60064B00221A61054B00225A6172
:101FF800034B00229A6100BFBD4680BC704700BFFA
:10200800C40200200080014080B596B000AF07F1FF
:10201800480300221A605A609A60DA6007F14003A8
:1020280000221A605A6007F1240300221A605A60DD
:102038009A60DA601A615A619A613B1D2022002178
:10204800184605F0CDFD504B504A1A604E4B40F2F1
:1020580052425A604C4B00229A604B4BFE22DA6087
:10206800494B00221A61484B00225A61464B002214
:102078009A61454803F070FE0346002B01D000F03A
:1020880081F94FF48053BB6407F1480319463E4871
:1020980004F030F90346002B01D000F073F93A48F8
:1020A80003F00AFF0346002B01D000F06BF9002370
:1020B8003B6400237B6407F140031946324804F06F
:1020C800BDFC0346002B01D000F05CF960237B6265
:1020D8000023BB620023FB6200233B6300237B6376
:1020E8000023BB630023FB6307F124030022194686
:1020F800254804F041F80346002B01D000F042F9CE
:1021080007F12403042219461F4804F035F8034652
:10211800002B01D000F036F907F1240308221946F4
:10212800194804F029F80346002B01D000F02AF9D9
:1021380007F124030C221946134804F01DF803463E
:10214800002B01D000F01EF900237B600023BB6048
:102158000023FB6000233B6100237B614FF40053A5
:10216800BB6100233B623B1D1946074804F0D2FCC3
:102178000346002B01D000F005F9034800F032FABD
:1021880000BF5837BD4680BD48030020002C0140E1
:1021980080B500AF114B124A1A60104B4FF4E13270
:1021A8005A600E4B00229A600C4B0022DA600B4BEF
:1021B80000221A61094B0C225A61084B00229A61CD
:1021C800064B0022DA61054804F007FD0346002BA0
:1021D80001D000F0D7F800BF80BD00BF90030020F9
:1021E8000038014080B58AB000AF07F1180300221B
:1021F8001A605A609A60DA60534B9B69524A43F0FE
:1022080010039361504B9B6903F010037B617B695A
:102218004D4B9B694C4A43F0800393614A4B9B6941
:1022280003F080033B613B69474B9B69464A43F097
:1022380004039361444B9B6903F00403FB60FB6850
:10224800414B9B69404A43F0400393613E4B9B6975
:1022580003F04003BB60BB683B4B9B693A4A43F0C1
:1022680008039361384B9B6903F008037B607B6824
:10227800354B9B69344A43F020039361324B9B6989
:1022880003F020033B603B6800223C212F4801F00B
:10229800BCF800220D212E4801F0B7F800224FF4B7
:1022A800FE412C4801F0B1F83C23BB610123FB61DE
:1022B80000233B6202237B6207F118031946234877
:1022C80000F0F8FE4FF47073BB61234BFB610023F1
:1022D8003B6207F1180319461C4800F0EBFE0D237A
:1022E800BB610123FB6100233B6202237B6207F190
:1022F80018031946164800F0DDFE3823BB61002399
:10230800FB6101233B6207F118031946134800F0EB
:10231800D1FE4FF4FE43BB610123FB6100233B6206
:1023280002237B6207F1180319460A4800F0C2FE2F
:1023380000220021172000F0A2FC172000F0BBFCAF
:1023480000BF2837BD4680BD00100240001C014078
:102358000010014000140140000011100008014065
:1023680080B582B000AF78607B681B68044A9342EE
:1023780001D100F08FFB00BF0837BD4680BD00BF0C
:102388000014004080B400AF72B600BFFEE7000042
:1023980080B483B000AF0E4B9B690D4A43F0010334
:1023A80093610B4B9B6903F001037B607B68084BCF
:1023B800DB69074A43F08053D361054BDB6903F0BF
:1023C80080533B603B6800BF0C37BD4680BC7047FC
:1023D8000010024080B58AB000AF786007F118039A
:1023E80000221A605A609A60DA607B681B682B4A80
:1023F800934224D12A4B9B69294A43F008039361ED
:10240800274B9B6903F008037B617B69C023BB6191
:102418001223FB6103237B6207F118031946214845
:1024280000F048FE1E4BDB691D4A43F40013D361DC
:102438001B4BDB6903F400133B613B6929E07B68B4
:102448001B68194A934224D1154B9B69144A43F0DF
:1024580008039361124B9B6903F00803FB60FB6858
:102468004FF44063BB611223FB6103237B6207F1D6
:10247800180319460B4800F01DFE094BDB69084A92
:1024880043F48003D361064BDB6903F48003BB602C
:10249800BB6800BF2837BD4680BD00BF0054004060
:1024A80000100240000C01400058004080B584B084
:1024B80000AF78607B681B680B4A934210D101F02B
:1024C80023F90A4BDB69094A43F00063D361074BE0
:1024D800DB6903F00063FB60FB68054B01221A60AF
:1024E80000BF1037BD4680BD0028004000100240E4
:1024F8003C04424280B58AB000AF786007F1180307
:1025080000221A605A609A60DA607B681B68224A67
:1025180093423CD1214B5B69204A43F48063536169
:102528001E4B5B6903F480637B617B691B4B9B6972
:102538001A4A43F010039361184B9B6903F0100388
:102548003B613B69154B9B69144A43F02003936137
:10255800124B9B6903F02003FB60FB684FF4885320
:10256800BB610223FB6103237B6207F11803194651
:102578000B4800F09FFD0423BB610223FB6103238A
:102588007B6207F118031946064800F093FD00BF67
:102598002837BD4680BD00BF0080014000100240C2
:1025A800001001400014014080B485B000AF78608D
:1025B8007B681B68094A93420BD1094B9B69084AFF
:1025C80043F400639361064B9B6903F40063FB606B
:1025D800FB6800BF1437BD4680BC7047002C014023
:1025E8000010024080B588B000AF786007F10C0396
:1025F80000221A605A609A60DA607B681B68194A80
:1026080093422AD1184B9B69174A43F040039361C0
:10261800154B9B6903F04003BB60BB684FF4D44380
:10262800FB6002233B610223BB6107F10C031946DF
:102638000E4800F03FFD0E4B5B68FB61FB6923F021
:10264800C003FB61FB6943F0E063FB61FB6943F096
:10265800C003FB61064AFB69536000BF2037BD46D3
:1026680080BD00BF002C014000100240001801404E
:102678000000014080B588B000AF786007F1100312
:1026880000221A605A609A60DA607B681B681C4AEC
:10269800934231D11B4B9B691A4A43F4804393619F
:1026A800184B9B6903F48043FB60FB68154B9B69DF
:1026B800144A43F004039361124B9B6903F004032B
:1026C800BB60BB684FF400733B6102237B6103234B
:1026D800FB6107F1100319460B4800F0EBFC4FF4BF
:1026E80080633B6100237B610023BB6107F110031A
:1026F8001946054800F0DEFC00BF2037BD4680BD06
:1027080000380140001002400008014080B58EB03A
:1027180000AF78600023FB620023BB62002387F8C8
:102728003330344BDB69334A43F02003D361314BF8
:10273800DB6903F02003FB60FB6807F1100207F177
:1027480014031146184601F0E7FB3B6AFB62FB6A7B
:10275800002B03D101F0B8FB786304E001F0B4FB6F
:1027680003465B007B637B6B234AA2FB03239B0C22
:10277800013BBB62214B224A1A60204B40F2E732F0
:10278800DA601E4ABB6A53601C4B00221A611B4B5D
:1027980000229A60194B00229A61184803F0DCFA6B
:1027A800034687F8333097F83330002B1BD1134892
:1027B80003F022FB034687F8333097F83330002BB9
:1027C80011D1372000F077FA7B680F2B08D8002248
:1027D8007968372000F053FA0A4A7B68136002E0F0
:1027E800012387F8333097F8333018463837BD4619
:1027F80080BD00BF0010024083DE1B43DC030020C5
:10280800001400400400002080B400AFFEE780B44C
:1028180000AFFEE780B400AFFEE780B400AFFEE78C
:1028280080B400AFFEE780B400AF00BFBD4680BCF7
:10283800704780B400AF00BFBD4680BC704780B40D
:1028480000AF00BFBD4680BC704780B400AF00BF7A
:10285800BD4680BC704780B500AF402000F0EEFD5B
:10286800802000F0EBFD4FF4807000F0E7FD4FF49E
:10287800007000F0E3FD00BF80BD000080B500AF30
:10288800024803F071FB00BF80BD00BFDC030020DD
:1028980080B400AF01231846BD4680BC704780B5A0
:1028A80082B000AF7860396005F070F903461622EF
:1028B8001A604FF0FF3318460837BD4680BD80B513
:1028C80082B000AF78604FF0FF317868FFF7E7FF1C
:1028D800FEE780B586B000AFF860B9607A60002383
:1028E8007B610AE0AFF300800146BB685A1CBA60FE
:1028F800CAB21A707B6901337B617A697B689A4234
:10290800F0DB7B6818461837BD4680BD80B586B0B9
:1029180000AFF860B9607A6000237B6109E0BB68AA
:102928005A1CBA601B781846AFF300807B690133E4
:102938007B617A697B689A42F1DB7B6818461837B5
:10294800BD4680BD80B483B000AF78604FF0FF33E0
:1029580018460C37BD4680BC704780B483B000AFC2
:10296800786039603B684FF400525A60002318467B
:102978000C37BD4680BC704780B483B000AF786028
:10298800012318460C37BD4680BC704780B485B01B
:1029980000AFF860B9607A60002318461437BD4666
:1029A80080BC704780B586B000AF7860144A154B7C
:1029B800D31A7B617B693B61134B1B68002B02D1E7
:1029C800114B124A1A60104B1A687B6813443A6913
:1029D8009A4207D205F0DAF803460C221A604FF043
:1029E800FF3309E0084B1B68FB60074B1A687B68DC
:1029F8001344054A1360FB6818461837BD4680BD66
:102A080000000120000400002404002078040020B5
:102A180080B400AF00BFBD4680BC70470C480D496C
:102A28000D4A002302E0D458C4500433C4188C4221
:102A3800F9D30A4A0A4C002301E013600432A24287
:102A4800FBD3FFF7E5FF05F0A7F8FFF74FF870474E
:102A580000000020E001002024CA0008E001002056
:102A680074040020FEE7000080B500AF084B1B6827
:102A7800074A43F010031360032000F0F5F80F2015
:102A8800FFF744FEFFF784FC0023184680BD00BF13
:102A98000020024080B400AF054B1B781A46054B56
:102AA8001B681344034A136000BFBD4680BC7047CF
:102AB800080000202804002080B400AF024B1B68E7
:102AC8001846BD4680BC70472804002080B584B0F5
:102AD80000AF7860FFF7F0FFB8607B68FB60FB68C9
:102AE800B3F1FF3F05D00A4B1B781A46FB68134425
:102AF800FB6000BFFFF7E0FF0246BB68D31AFA6825
:102B08009A42F7D800BF00BF1037BD4680BD00BF4E
:102B18000800002080B485B000AF78607B6803F0BF
:102B28000703FB600C4BDB68BB60BA684FF6FF031A
:102B38001340BB60FB681A02BB68134343F0BF63D2
:102B480043F40033BB60044ABB68D36000BF14374A
:102B5800BD4680BC704700BF00ED00E080B400AF08
:102B6800044BDB681B0A03F007031846BD4680BC0C
:102B7800704700BF00ED00E080B483B000AF0346AB
:102B8800FB7197F90730002B0BDBFB7903F01F0271
:102B9800064997F907305B09012000FA02F241F86B
:102BA800232000BF0C37BD4680BC704700E100E021
:102BB80080B483B000AF03463960FB7197F90730E2
:102BC800002B0ADB3B68DAB20C4997F9073012018F
:102BD800D2B20B4483F800230AE03B68DAB2084912
:102BE800FB7903F00F03043B1201D2B20B441A76AF
:102BF80000BF0C37BD4680BC704700BF00E100E055
:102C080000ED00E080B489B000AFF860B9607A6088
:102C1800FB6803F00703FB61FB69C3F10703042B9F
:102C280028BF0423BB61FB690433062B02D9FB6967
:102C3800033B00E000237B614FF0FF32BB6902FADF
:102C480003F3DA43BB681A407B699A404FF0FF31BF
:102C58007B6901FA03F3D9437B680B401343184699
:102C68002437BD4680BC704780B582B000AF78601D
:102C78007868FFF74FFF00BF0837BD4680BD80B5B5
:102C880086B000AF0346B9607A60FB7300237B61AE
:102C9800FFF764FF78617A68B9687869FFF7B2FF6F
:102CA800024697F90F3011461846FFF781FF00BF1B
:102CB8001837BD4680BD80B582B000AF0346FB71B2
:102CC80097F907301846FFF757FF00BF0837BD468A
:102CD80080BD0000F0B587B000AFF860B960C7E903
:102CE80000230123FB750023BB7500237B752F4B45
:102CF8001B7E012B01D1022354E02C4B01221A76B2
:102D08004CF2503000F098F80346FB75FB7D002B21
:102D180044D1FB68012B02D101237B7507E0FB68D6
:102D2800022B02D102237B7501E004237B7500236B
:102D3800BB752DE0BB7D5A00BB6802EB030CBB7D65
:102D48001901D7E90023C1F12006A1F1200022FAD8
:102D580001F403FA06F6344323FA00F0044323FA95
:102D680001F5A3B21946604600F04AF84CF250301B
:102D780000F062F80346FB750D4B1B690C4A23F003
:102D880001031361FB7D002B07D1BB7D0133BB75AC
:102D9800BA7D7B7D9A42CDD300E000BF034B002271
:102DA8001A76FB7D18461C37BD46F0BD300400205E
:102DB8000020024080B483B000AF0023FB710D4BAC
:102DC8001B6903F08003002B0DD00A4B0A4A5A6096
:102DD800084B0A4A5A60074B1B6903F08003002B13
:102DE80001D00123FB71FB7918460C37BD4680BC26
:102DF800704700BF0020024023016745AB89EFCD33
:102E080080B483B000AF78600B467B80084B00220B
:102E1800DA61084B1B69074A43F0010313617B68B9
:102E28007A881A8000BF0C37BD4680BC704700BF47
:102E3800300400200020024080B584B000AF7860E4
:102E4800FFF73AFEF86010E07B68B3F1FF3F0CD063
:102E58007B68002B07D0FFF72FFE0246FB68D31ACA
:102E68007A689A4201D2032325E0154BDB6803F008
:102E78000103002BE8D1124BDB6803F02003002B81
:102E880002D00F4B2022DA600D4BDB6803F01003F1
:102E9800002B0BD10A4BDB6903F00103002B05D192
:102EA800074BDB6803F00403002B03D000F00AF89B
:102EB800012300E0002318461037BD4680BD00BF3F
:102EC8000020024080B483B000AF00237B60234B16
:102ED800DB6803F01003002B09D0214BDB6943F0BA
:102EE80002031F4AD3617B6843F010037B601B4BCE
:102EF800DB6803F00403002B09D0194BDB6943F0AE
:102F08000103174AD3617B6843F004037B60134BCA
:102F1800DB6903F00103002B0BD0114BDB6943F095
:102F280004030F4AD3610D4BDB690C4A23F00103FC
:102F3800D3617B6840F20112934206D1074BDB69EB
:102F4800064A23F00103D36102E0044A7B68D36098
:102F580000BF0C37BD4680BC704700BF0020024050
:102F68003004002080B584B000AF78603960012358
:102F7800FB730023BB602F4B1B7E012B01D1022367
:102F880053E02C4B01221A767B681B68022B16D162
:102F98004CF25030FFF750FF0346002B41D101207F
:102FA80000F04CF84CF25030FFF746FF0346FB7335
:102FB800214B1B69204A23F00403136131E04CF2D2
:102FC8005030FFF739FF0346002B2AD13B684FF0FA
:102FD800FF321A607B689B68BB6019E0B86800F034
:102FE80049F84CF25030FFF727FF0346FB73124BAA
:102FF8001B69114A23F002031361FB7B002B03D0EA
:103008003B68BA681A600CE0BB6803F50063BB60F4
:103018007B68DB68DA027B689B681344BA689A426B
:10302800DCD3044B00221A76FB7B18461037BD46CA
:1030380080BD00BF300400200020024080B483B06F
:1030480000AF7860094B0022DA61094B1B69084A16
:1030580043F004031361064B1B69054A43F0400320
:10306800136100BF0C37BD4680BC70473004002098
:103078000020024080B483B000AF78600B4B002280
:10308800DA610B4B1B690A4A43F002031361084AD1
:103098007B685361064B1B69054A43F04003136183
:1030A80000BF0C37BD4680BC704700BF300400200D
:1030B8000020024080B48BB000AF786039600023F4
:1030C8007B6200233B6279E101227B6A02FA03F307
:1030D800FB613B681B68FA691340BB61BA69FB690D
:1030E8009A4240F068813B685B68964A93425ED09A
:1030F800944A934275D8944A934258D0924A93423C
:103108006FD8924A934252D0904A934269D8904AD3
:1031180093424CD08E4A934263D88E4A934246D00B
:103128008C4A93425DD8122B2AD8122B59D801A267
:1031380052F823F0B731000891310008A331000894
:10314800E5310008EB310008EB310008EB310008ED
:10315800EB310008EB310008EB310008EB310008D7
:10316800EB310008EB310008EB310008EB310008C7
:10317800EB310008EB31000899310008AD31000847
:10318800754A934213D02CE03B68DB683B6229E028
:103198003B68DB6804333B6224E03B68DB68083348
:1031A8003B621FE03B68DB680C333B621AE03B681C
:1031B8009B68002B02D104233B6213E03B689B68A9
:1031C800012B05D108233B627B68FA691A6109E083
:1031D80008233B627B68FA695A6103E000233B627B
:1031E80000E000BFBB69FF2B01D87B6801E07B686A
:1031F80004337B61BB69FF2B02D87B6A9B0002E02A
:103208007B6A083B9B003B617B691A680F213B691D
:1032180001FA03F3DB431A40396A3B6901FA03F305
:103228001A437B691A603B685B6803F08053002B84
:1032380000F0C180494B9B69484A43F00103936100
:10324800464B9B6903F00103BB60BB68444A7B6A39
:103258009B08023352F82330FB607B6A03F00303B8
:103268009B000F2202FA03F3DB43FA681340FB606A
:103278007B683C4A93421FD07B683B4A934219D0F3
:103288007B683A4A934213D07B68394A93420DD0FF
:103298007B68384A934207D07B68374A934201D10A
:1032A80005230AE0062308E0042306E0032304E0DC
:1032B800022302E0012300E000237A6A02F00302FD
:1032C80092009340FA681343FB6025497B6A9B0888
:1032D8000233FA6841F823203B685B6803F48033C3
:1032E800002B06D0254B1A682449BB6913430B6091
:1032F80006E0224B1A68BB69DB43204913400B6088
:103308003B685B6803F40033002B06D01B4B5A68FC
:103318001A49BB6913434B6006E0184B5A68BB69EE
:10332800DB43164913404B603B685B6803F480132A
:10333800002B25D0114B9A681049BB6913438B6049
:1033480025E000BF000032100000311000002210FC
:10335800000021100000121000001110001002409F
:103368000000014000080140000C0140001001402D
:103378000014014000180140001C014000040140F5
:10338800154B9A68BB69DB43134913408B603B6854
:103398005B6803F40013002B06D00F4BDA680E4964
:1033A800BB691343CB6006E00B4BDA68BB69DB43B0
:1033B80009491340CB607B6A01337B623B681A681A
:1033C8007B6A22FA03F3002B7FF47EAE00BF00BFB6
:1033D8002C37BD4680BC70470004014080B485B0DE
:1033E80000AF78600B467B807B689A687B881340C7
:1033F800002B02D00123FB7301E00023FB73FB7B4E
:1034080018461437BD4680BC704780B483B000AFFF
:1034180078600B467B8013467B707B78002B03D04B
:103428007A887B681A6103E07B881A047B681A61D2
:1034380000BF0C37BD4680BC7047000080B582B025
:1034480000AF0346FB80084B5A69FB881340002BEA
:1034580006D0054AFB885361FB88184600F006F839
:1034680000BF0837BD4680BD0004014080B483B06A
:1034780000AF0346FB8000BF0C37BD4680BC7047D9
:1034880080B584B000AF78607B68002B01D1012340
:103498002BE17B6893F83D30DBB2002B06D17B68CB
:1034A800002283F83C207868FEF794FF7B6824228A
:1034B80083F83D207B681B681A687B681B6822F0CC
:1034C80001021A607B681B681A687B681B6842F4F3
:1034D80000421A607B681B681A687B681B6822F4C4
:1034E80000421A6000F0F0FCF8607B685B68814A73
:1034F800934207D8FB68804A934294BF0123002374
:10350800DBB206E0FB687D4A934294BF01230023A7
:10351800DBB2002B01D00123E7E0FB68784AA2FB6D
:1035280003239B0CBB607B681B685B6823F03F012F
:103538007B681B68BA680A435A607B681B681B6A09
:1035480023F03F017B685B686A4A934202D8BB68F4
:10355800013309E0BB684FF4967202FB03F3694A32
:10356800A2FB03239B0901337A6812680B43136299
:103578007B681B68DB6923F44F4222F0FF027B68FB
:103588005B685C498B4219D8FB68591E7B685B688D
:103598005B00B1FBF3F3591C40F6FC730B40002BA6
:1035A8000AD0FB68591E7B685B685B00B1FBF3F3CC
:1035B8000133C3F30B0351E004234FE07B689B689E
:1035C800002B11D1FB68581E7B6859680B465B00BD
:1035D8000B44B0FBF3F30133C3F30B03002B0CBF15
:1035E80001230023DBB212E0FB68581E7B68596890
:1035F8000B469B000B4499000B44B0FBF3F30133DB
:10360800C3F30B03002B0CBF01230023DBB2002BF9
:1036180001D0012322E07B689B68002B0ED1FB6858
:10362800581E7B6859680B465B000B44B0FBF3F3EC
:103638000133C3F30B0343F400430FE0FB68581E48
:103648007B6859680B469B000B4499000B44B0FB00
:10365800F3F30133C3F30B0343F440437968096878
:103668001343CB617B681B681B6823F0C0017B6830
:10367800DA697B681B6A1A437B681B680A431A600D
:103688007B681B689B6823F4034323F0FF037A6875
:1036980011697A68D26811437A6812680B4393609B
:1036A8007B681B68DB6823F0FF017B685A697B68CD
:1036B8009B691A437B681B680A43DA607B681B684E
:1036C8001A687B681B6842F001021A607B68002256
:1036D8001A647B68202283F83D207B6800221A63E5
:1036E8007B68002283F83E20002318461037BD4629
:1036F80080BD00BFA08601007F841E00FF083D003A
:1037080083DE1B43D34D621080B400AF034B01220C
:103718001A6000BFBD4680BC704700BF20000E4243
:1037280080B586B000AF78607B68002B01D101239B
:1037380072E27B681B6803F00103002B00F08780AE
:10374800924B5B6803F00C03042B0CD08F4B5B6827
:1037580003F00C03082B12D18C4B5B6803F4803305
:10376800B3F5803F0BD1894B1B6803F40033002B62
:103778006CD07B685B68002B68D101234CE27B68C6
:103788005B68B3F5803F06D1804B1B687F4A43F4E2
:10379800803313602EE07B685B68002B0CD17B4B79
:1037A8001B687A4A23F480331360784B1B68774A86
:1037B80023F4802313601DE07B685B68B3F5A02FBA
:1037C8000CD1724B1B68714A43F4802313606F4B12
:1037D8001B686E4A43F4803313600BE06B4B1B6825
:1037E8006A4A23F480331360684B1B68674A23F4E2
:1037F800802313607B685B68002B13D0FFF75CF9AC
:10380800386108E0FFF758F902463B69D31A642B80
:1038180001D9032300E25D4B1B6803F40033002B3E
:10382800F0D014E0FFF748F9386108E0FFF744F9F1
:1038380002463B69D31A642B01D90323ECE1534BAD
:103848001B6803F40033002BF0D100E000BF7B6855
:103858001B6803F00203002B63D04C4B5B6803F03A
:103868000C03002B0BD0494B5B6803F00C03082BAF
:103878001CD1464B5B6803F48033002B16D1434BB5
:103888001B6803F00203002B05D07B681B69012B22
:1038980001D00123C0E13D4B1B6823F0F8027B688F
:1038A8005B69DB00394913430B603AE07B681B69AD
:1038B800002B20D0364B01221A60FFF7FDF8386143
:1038C80008E0FFF7F9F802463B69D31A022B01D941
:1038D8000323A1E12D4B1B6803F00203002BF0D05A
:1038E8002A4B1B6823F0F8027B685B69DB002749D9
:1038F80013430B6015E0264B00221A60FFF7DCF833
:10390800386108E0FFF7D8F802463B69D31A022B62
:1039180001D9032380E11D4B1B6803F00203002B30
:10392800F0D17B681B6803F00803002B3AD07B6852
:103938009B69002B19D0174B01221A60FFF7BCF8BE
:10394800386108E0FFF7B8F802463B69D31A022B42
:1039580001D9032360E10D4B5B6A03F00203002BDE
:10396800F0D0012000F008FB1CE00A4B00221A608E
:10397800FFF7A2F838610FE0FFF79EF802463B69AF
:10398800D31A022B08D9032346E100BF00100240D6
:103998000000424280044242924B5B6A03F00203F9
:1039A800002BE9D17B681B6803F00403002B00F0AF
:1039B800A6800023FB758B4BDB6903F08053002B3B
:1039C8000DD1884BDB69874A43F08053D361854B1F
:1039D800DB6903F08053BB60BB680123FB75824B36
:1039E8001B6803F48073002B18D17F4B1B687E4A39
:1039F80043F480731360FFF75FF8386108E0FFF75E
:103A08005BF802463B69D31A642B01D9032303E10F
:103A1800754B1B6803F48073002BF0D07B68DB6860
:103A2800012B06D16F4B1B6A6E4A43F001031362E8
:103A38002DE07B68DB68002B0CD16A4B1B6A694A56
:103A480023F001031362674B1B6A664A23F00403E1
:103A580013621CE07B68DB68052B0CD1614B1B6A89
:103A6800604A43F0040313625E4B1B6A5D4A43F0ED
:103A7800010313620BE05B4B1B6A5A4A23F00103F4
:103A88001362584B1B6A574A23F0040313627B687E
:103A9800DB68002B15D0FFF70FF838610AE0FFF755
:103AA8000BF802463B69D31A41F28832934201D996
:103AB8000323B1E04B4B1B6A03F00203002BEED04B
:103AC80014E0FEF7F9FF38610AE0FEF7F5FF024659
:103AD8003B69D31A41F28832934201D903239BE010
:103AE800404B1B6A03F00203002BEED1FB7D012B38
:103AF80005D13C4BDB693B4A23F08053D3617B689B
:103B0800DB69002B00F08780364B5B6803F00C0301
:103B1800082B61D07B68DB69022B46D1334B00222E
:103B28001A60FEF7C9FF386108E0FEF7C5FF0246D4
:103B38003B69D31A022B01D903236DE0294B1B687B
:103B480003F00073002BF0D17B681B6AB3F5803F4C
:103B580008D1244B5B6823F400327B689B682149B9
:103B680013434B601F4B5B6823F474127B68196A1C
:103B78007B685B6A0B431B4913434B601B4B012259
:103B88001A60FEF799FF386108E0FEF795FF0246D4
:103B98003B69D31A022B01D903233DE0114B1B6863
:103BA80003F00073002BF0D035E0104B00221A60B0
:103BB800FEF782FF386108E0FEF77EFF02463B69A8
:103BC800D31A022B01D9032326E0064B1B6803F006
:103BD8000073002BF0D11EE07B68DB69012B07D155
:103BE800012319E0001002400070004060004242CA
:103BF8000B4B5B68FB60FB6803F480327B681B6AD5
:103C08009A4206D1FB6803F470127B685B6A9A4299
:103C180001D0012300E0002318461837BD4680BDB7
:103C28000010024080B584B000AF786039607B68CE
:103C3800002B01D10123D0E06A4B1B6803F0070376
:103C48003A689A4210D9674B1B6823F00702654906
:103C58003B6813430B60634B1B6803F007033A6828
:103C68009A4201D00123B8E07B681B6803F0020385
:103C7800002B20D07B681B6803F00403002B05D0C1
:103C8800594B5B68584A43F4E06353607B681B6890
:103C980003F00803002B05D0534B5B68524A43F4EA
:103CA80060535360504B5B6823F0F0027B689B685D
:103CB8004D4913434B607B681B6803F00103002BDD
:103CC80040D07B685B68012B07D1474B1B6803F426
:103CD8000033002B15D101237FE07B685B68022B42
:103CE80007D1414B1B6803F00073002B09D1012356
:103CF80073E03D4B1B6803F00203002B01D1012345
:103D08006BE0394B5B6823F003027B685B683649DC
:103D180013434B60FEF7D0FEF8600AE0FEF7CCFED6
:103D28000246FB68D31A41F28832934201D9032331
:103D380053E02D4B5B6803F00C027B685B689B00CB
:103D48009A42EBD1274B1B6803F007033A689A4263
:103D580010D2244B1B6823F0070222493B68134307
:103D68000B60204B1B6803F007033A689A4201D0A6
:103D7800012332E07B681B6803F00403002B08D0A2
:103D8800194B5B6823F4E0627B68DB6816491343D0
:103D98004B607B681B6803F00803002B09D0124BAB
:103DA8005B6823F460527B681B69DB000E49134390
:103DB8004B6000F021F802460B4B5B681B0903F0CF
:103DC8000F030A49CB5C22FA03F3094A1360094B33
:103DD8001B681846FEF79AFC002318461037BD46A4
:103DE80080BD00BF002002400010024048C5000806
:103DF800000000200400002090B48AB000AF294BD6
:103E08003C1D0FCB84E80F0040F201233B800023C8
:103E1800FB610023BB6100237B6200237B610023DD
:103E28003B62214B5B68FB61FB6903F00C03042BCD
:103E380002D0082B03D02BE01C4B3B622BE0FB6924
:103E48009B0C03F00F0328333B4413F8243C7B619D
:103E5800FB6903F48033002B12D0134B5B685B0CB7
:103E680003F0010328333B4413F8283CBB617B690A
:103E78000E4A03FB02F2BB69B2FBF3F37B6204E078
:103E88007B690B4A02FB03F37B627B6A3B6202E0BD
:103E9800064B3B6200BF3B6A18462837BD4690BCBC
:103EA800704700BF28C500080010024000127A00C1
:103EB80000093D0080B400AF024B1B681846BD46A0
:103EC80080BC70470000002080B500AFFFF7F2FF0C
:103ED8000246054B5B681B0A03F007030349CB5CEA
:103EE80022FA03F3184680BD0010024058C50008A6
:103EF80080B500AFFFF7DEFF0246054B5B68DB0AC3
:103F080003F007030349CB5C22FA03F3184680BD8C
:103F18000010024058C5000880B483B000AF786034
:103F280039607B680F221A60114B5B6803F003024B
:103F38007B685A600E4B5B6803F0F0027B689A60FE
:103F48000B4B5B6803F4E0627B68DA60084B5B68E4
:103F5800DB0803F4E0627B681A61064B1B6803F018
:103F680007023B681A6000BF0C37BD4680BC70472B
:103F7800001002400020024080B485B000AF786095
:103F88000A4B1B680A4AA2FB03235B0A7A6802FBF6
:103F980003F3FB6000BFFB685A1EFA60002BF9D1DF
:103FA80000BF00BF1437BD4680BC7047000000202A
:103FB800D34D621080B586B000AF786000233B61B6
:103FC8000023FB607B681B6803F00103002B7DD096
:103FD8000023FB754F4BDB6903F08053002B0DD199
:103FE8004C4BDB694B4A43F08053D361494BDB6947
:103FF80003F08053BB60BB680123FB75464B1B680D
:1040080003F48073002B18D1434B1B68424A43F4D6
:1040180080731360FEF750FD386108E0FEF74CFD31
:1040280002463B69D31A642B01D903236DE03A4B4E
:104038001B6803F48073002BF0D0364B1B6A03F423
:104048004073FB60FB68002B2ED07B685B6803F431
:104058004073FA689A4227D02E4B1B6A23F44073A8
:10406800FB602E4B01221A602C4B00221A60294A51
:10407800FB681362FB6803F00103002B14D0FEF702
:104088001BFD38610AE0FEF717FD02463B69D31AAB
:1040980041F28832934201D9032336E01D4B1B6A53
:1040A80003F00203002BEED01A4B1B6A23F4407274
:1040B8007B685B68174913430B62FB7D012B05D1B5
:1040C800144BDB69134A23F08053D3617B681B6868
:1040D80003F00203002B08D00E4B5B6823F4404228
:1040E8007B689B680B4913434B607B681B6803F034
:1040F8001003002B08D0074B5B6823F480027B6811
:104108005B69044913434B60002318461837BD46C2
:1041180080BD00BF001002400070004040044242D1
:1041280090B58DB000AF78606A4B07F10C040FCBE7
:1041380084E80F0040F201233B8100237B620023C7
:10414800FB6200233B620023FB610023BB627B68A8
:10415800013B0F2B00F2B48001A252F823F000BFFC
:1041680047420008AD420008C9420008374200082B
:10417800C9420008C9420008C94200083F42000875
:10418800C9420008C9420008C9420008C9420008DB
:10419800C9420008C9420008C9420008A9410008EC
:1041A8004D4B5B68FB614C4B1B6803F08073002B25
:1041B80000F08880FB699B0C03F00F0330333B440D
:1041C80013F8243C3B62FB6903F48033002B17D0BF
:1041D800414B5B685B0C03F0010330333B4413F83D
:1041E800283C7B62FB6903F48033002B0DD03B4AEB
:1041F8007B6AB2FBF3F23B6A02FB03F3FB6204E067
:104208003B6A374A02FB03F3FB62334B5B6803F4F8
:104218008003B3F5800F02D1FB6ABB6252E0FB6AF0
:104228005B00304AA2FB03235B08BB624AE0FFF74E
:10423800E3FDB86249E0FFF7DFFDB86245E0264BD1
:104248001B6AFB61FB6903F44073B3F5807F08D1F7
:10425800FB6903F00203002B03D04FF40043BB6259
:104268001FE0FB6903F44073B3F5007F09D11A4BD3
:104278005B6A03F00203002B03D049F64043BB629C
:104288000FE0FB6903F44073B3F5407F1CD1124B78
:104298001B6803F40033002B16D04FF22443BB6293
:1042A80012E011E0FFF724FE02460B4B5B689B0B04
:1042B80003F0030301335B00B2FBF3F3BB6204E0DA
:1042C80000BF02E000BF00E000BFBB6A18463437F9
:1042D800BD4690BD38C500080010024000127A00A3
:1042E80000093D00ABAAAAAA80B584B000AF7860E7
:1042F8000023FB607B68002B01D1012384E07B68ED
:104308005B7CDBB2002B05D17B6800221A747868CD
:10431800FEF7CCF87B6802225A74786800F0F4FA49
:104328000346002B04D07B6804225A7401236BE0F7
:10433800786800F0ADFB0346002B04D07B680422AC
:104348005A74012360E07B681B685A687B681B68A5
:1043580022F007025A607B689B68002B05D02C4B23
:104368001B6B2B4A23F001031363294BDB6A23F4ED
:1043780060727B689B6826491343CB627B685B68E5
:10438800B3F1FF3F03D07B685B68FB600EE0012060
:10439800FFF7C6FEF860FB68002B04D17B68042297
:1043A8005A74012330E0FB68013BFB607B681B68A3
:1043B8009B6823F00F01FB681A0C7B681B680A4393
:1043C8009A607B681B68DB681B0C1B04FA6891B257
:1043D8007A6812680B43D360786800F081FB034663
:1043E800002B04D07B6804225A7401230CE07B68FC
:1043F8000022DA737B6801225A737B6801229A7360
:104408007B6801225A74002318461037BD4680BDC8
:10441800006C004090B587B000AFF860B9607A6072
:1044280000237B6100233B61FB68002B02D0BB6843
:10443800002B01D1012380E0FB681B7C012B01D1FB
:1044480002237AE0FB6801221A74FB6802225A747C
:104458007B68002B13D1BB681B781A464FF4616345
:1044680003FB02F2BB685B7819460B461B015B1A1B
:104478009B001344BA68927813447B611EE0BB68C2
:104488001B78184600F071FB03461A464FF4616327
:1044980003FB02F4BB685B78184600F066FB034632
:1044A8001A4613461B019B1A9B001C44BB689B7849
:1044B800184600F05AFB034623447B617969F86883
:1044C80000F07FFA0346002B07D0FB6804225A74D9
:1044D800FB6800221A7401232FE0FB681B685A68E6
:1044E800FB681B6822F005025A60F86800F090FA31
:1044F80038613B69B3F1FF3F18D03A697B699A424A
:1045080014D23B6903F5A83303F5C0733B613969DD
:10451800F86800F096FA0346002B07D0FB680422DF
:104528005A74FB6800221A74012306E0FB68012212
:104538005A74FB6800221A74002318461C37BD46BB
:1045480090BD000080B588B000AFF860B9607A60AF
:104558000023BB610023FB6100237B6100233B61D7
:10456800FB68002B02D0BB68002B01D10123B5E00A
:10457800FB681B685B6803F00403002B01D0012370
:10458800ACE0F86800F0EDF9B861BB69554AA2FBE8
:104598000323DB0A3B61BA69524BA3FB0213DB0A14
:1045A8004FF4616101FB03F3D31A4F4AA2FB0323C3
:1045B8005B09DAB2BB685A70BB694A4AA2FB0312AC
:1045C800D20A4FF4616101FB02F29A1A464BA3FB2F
:1045D800021359090B461B015B1A9B00D11ACAB278
:1045E800BB689A703B69172B55D93B693F4AA2FBB8
:1045F80003231B097B6139693C4BA3FB01231A097F
:1046080013465B001344DB00CA1AD2B2BB681A70A7
:10461800F86800F0FDF9F861FB69B3F1FF3F08D0D5
:10462800FA69BB699A4204D9FA69BB69D31AFB6172
:1046380002E04FF0FF33FB617B692D4A02FB03F375
:10464800BA69D31ABB61B969F86800F0BAF90346C8
:10465800002B01D0012341E0FB69B3F1FF3F0CD0EF
:10466800FA69BB691344FB61F969F86800F0E9F974
:104678000346002B0AD0012330E0F969F86800F0FE
:10468800E0F90346002B01D0012327E07969F86897
:1046980000F088FA03E03B69DAB2BB681A707B68FD
:1046A800002B1AD0BB681B78184600F041FA034665
:1046B8001A46BB681A70BB685B78184600F038FA6F
:1046C80003461A46BB685A70BB689B78184600F0C8
:1046D8002FFA03461A46BB689A70002318462037FB
:1046E800BD4680BDC5B3A29189888888ABAAAAAA0D
:1046F8008051010080B588B000AFF860B9607A6079
:104708000023FB610023BB6100237B61FB68002B56
:1047180002D0BB68002B01D1012397E0FB681B7C0A
:10472800012B01D1022391E0FB6801221A74FB6876
:1047380002225A747B68002B0CD1BB68DA78FB68BC
:10474800DA73BB685A78FB685A73BB689A78FB6857
:104758009A731AE0BB68DB78184600F006FA03463D
:104768001A46FB68DA73BB685B78184600F0FDF9F7
:1047780003461A46FB685A73BB689B78184600F0D4
:10478800F4F903461A46FB689A73FB68DB7B184604
:10479800FB68597BFB689B7B1A4600F0DFFA0346EF
:1047A8001A46FB681A73FB681A7BBB681A70F868AC
:1047B80000F0D7F8F861FB69264AA2FB0323DB0A5D
:1047C8007B617B69182B3AD97B69234AA2FB0323B7
:1047D8001B09224A02FB03F3FA69D31AFB61F96940
:1047E800F86800F0EEF80346002B07D0FB680422B7
:1047F8005A74FB6800221A74012327E0F86800F055
:1048080007F9B861BB69B3F1FF3F18D0BA69FB6912
:104818009A4214D2BB6903F5A83303F5C073BB6190
:10482800B969F86800F00DF90346002B07D0FB685A
:1048380004225A74FB6800221A74012306E0FB68FC
:1048480001225A74FB6800221A7400231846203784
:10485800BD4680BDC5B3A291ABAAAAAA80510100EA
:1048680080B586B000AFF860B9607A6007F11403CC
:1048780000210A461A800A469A70FB68002B02D06B
:10488800BB68002B01D101233AE007F11403002291
:104898001946F868FFF756FE0346002B01D001239E
:1048A8002EE0FB681A7BBB681A70FB68DA7BBB6872
:1048B800DA70FB685A7BBB685A70FB689A7BBB68E6
:1048C8009A707B68002B1AD0BB68DB78184600F01A
:1048D8002FF903461A46BB68DA70BB685B7818463E
:1048E80000F026F903461A46BB685A70BB689B78E5
:1048F800184600F01DF903461A46BB689A70002353
:1049080018461837BD4680BD80B584B000AF7860C2
:104918000023FB607B68002B01D101231DE07B682D
:104928001B685A687B681B6822F008025A60FEF709
:10493800C3F8F86009E0FEF7BFF80246FB68D31A2F
:10494800B3F57A7F01D9032307E07B681B685B68AE
:1049580003F00803002BEED0002318461037BD469D
:1049680080BD80B487B000AF786000237B820023CD
:104978003B820023FB8100237B617B681B689B696A
:104988007B827B681B68DB69FB817B681B689B6992
:104998003B827A8A3B8A9A4208D03B8A1A047B680F
:1049A8001B68DB699BB213437B6104E07B8A1A04B2
:1049B800FB8913437B617B6918461C37BD4680BC65
:1049C800704780B584B000AF786039600023FB730E
:1049D800786800F05DF80346002B02D00123FB73D2
:1049E80011E07B681B683A68120C9A617B681B6847
:1049F8003A6892B2DA61786800F072F80346002BE0
:104A080001D00123FB73FB7B18461037BD4680BDE0
:104A180080B485B000AF78600023FB810023BB81A0
:104A28007B681B681B6AFB817B681B685B6ABB81B0
:104A3800FB891A04BB89134318461437BD4680BC4A
:104A4800704780B584B000AF786039600023FB738D
:104A5800786800F01DF80346002B02D00123FB7391
:104A680011E07B681B683A68120C1A627B681B6845
:104A78003A6892B25A62786800F032F80346002B1E
:104A880001D00123FB73FB7B18461037BD4680BD60
:104A980080B584B000AF78600023FB60FEF70CF8A7
:104AA800F86009E0FEF708F80246FB68D31AB3F588
:104AB8007A7F01D903230FE07B681B685B6803F0EA
:104AC8002003002BEED07B681B685A687B681B6844
:104AD80042F010025A60002318461037BD4680BDC8
:104AE80080B584B000AF78600023FB607B681B68EA
:104AF8005A687B681B6822F010025A60FDF7DCFFD9
:104B0800F86009E0FDF7D8FF0246FB68D31AB3F551
:104B18007A7F01D9032307E07B681B685B6803F091
:104B28002003002BEED0002318461037BD4680BD69
:104B380080B485B000AF0346FB710023FB6005E03D
:104B4800FB680133FB60FB790A3BFB71FB79092B9E
:104B5800F6D8FB68DBB21B01DAB2FB791343DBB290
:104B680018461437BD4680BC704780B485B000AF86
:104B78000346FB710023FB60FB791B09DBB21A4675
:104B880013469B0013445B00FB60FB7903F00F03A3
:104B9800DAB2FB68DBB21344DBB218461437BD4601
:104BA80080BC704780B586B000AF7860396000235C
:104BB8007B6100233B610023FB600023BB607B68B3
:104BC800DB7B7B617B685B7B3B617B689B7BFB6002
:104BD8000023BB606FE03B69012B11D03B69032BBD
:104BE8000ED03B69052B0BD03B69072B08D03B69DE
:104BF800082B05D03B690A2B02D03B690C2B17D137
:104C0800FB681E2B03D8FB680133FB6050E03B694F
:104C18000C2B05D03B6901333B610123FB6047E066
:104C280001233B610123FB607B6901337B613FE02A
:104C38003B69042B08D03B69062B05D03B69092B3F
:104C480002D03B690B2B0CD1FB681D2B03D8FB68EA
:104C58000133FB602CE03B6901333B610123FB60BE
:104C680026E03B69022B23D1FB681B2B03D8FB688A
:104C78000133FB601CE0FB681C2B11D17B699BB2E4
:104C8800184600F039F80346002B03D0FB680133BF
:104C9800FB600DE03B6901333B610123FB6007E0EA
:104CA800FB681D2B04D13B6901333B610123FB6089
:104CB800BB680133BB60BA683B689A428BD37B6997
:104CC800DAB27B68DA733B69DAB27B685A73FB68DD
:104CD800DAB27B689A733B69DBB2FA68D2B21946DA
:104CE800786900F03BF803461A467B681A7300BFE0
:104CF8001837BD4680BD000080B483B000AF0346BE
:104D0800FB80FB8803F003039BB2002B01D0002338
:104D18001DE0FB88104AA2FB03125209642101FB23
:104D280002F29B1A9BB2002B01D001230FE0FB88F3
:104D3800094AA2FB0312D2094FF4C87101FB02F21F
:104D48009B1A9BB2002B01D1012300E000231846D7
:104D58000C37BD4680BC70471F85EB5180B485B0C9
:104D680000AF78600B46FB701346BB700023BB6036
:104D78000023FB607B6803F5FA63BB60FB78022BBA
:104D88002DD8FA7813465B001344DB009B1A2C4A93
:104D9800A2FB03235A08BB781A44BB681A44BB68B1
:104DA800013B9B081A44BB68013B2649A1FB03133E
:104DB8005B09D21ABB68013B2249A1FB0313DB093B
:104DC80013441A1D204BA3FB0213D11A49080B44A4
:104DD80099080B46DB005B1AD31AFB6029E0FA78C6
:104DE80013465B001344DB009B1A154AA2FB0323FE
:104DF8005A08BB781A44BB681A44BB689B081A4413
:104E0800BB681049A1FB03135B09D21ABB680D49A3
:104E1800A1FB0313DB0913449A1C0B4BA3FB0213DE
:104E2800D11A49080B4499080B46DB005B1AD31AC0
:104E3800FB60FB68DBB218461437BD4680BC704780
:104E4800398EE3381F85EB512549922480B582B00D
:104E580000AF78607B68002B01D1012322E07B68DA
:104E680093F83430DBB2002B05D17B6800221A7727
:104E78007868FDF73FFB7B68032283F83420786865
:104E880000F014F80346002B01D001230AE07B68E8
:104E980000229A637B6800221A637B68012283F8E8
:104EA8003420002318460837BD4680BDB0B58EB003
:104EB80004AF78600023BB600023FB6000233B61E4
:104EC80000237B610023BB617623FB617B681D683F
:104ED8006C4607F1140393E8070084E8070007F11C
:104EE80008030ECB284601F053FF034687F8273006
:104EF80097F82730002B01D001234CE0284B0022E3
:104F08001A607B681B68184601F088FF244B012251
:104F18001A60786800F06AFE38623B6A002B0BD092
:104F28007B68012283F834207B689A6B3B6A1A43BA
:104F38007B689A6301232EE0786800F088FD386268
:104F48003B6A002B0BD07B68012283F834207B68F6
:104F58009A6B3B6A1A437B689A6301231BE07B6860
:104F68001B684FF40071184601F0E6FF38623B6A8F
:104F7800002B0FD07B681B680A4A9A637B689A6B80
:104F88003B6A1A437B689A637B68012283F8342062
:104F9800012300E0002318462837BD46B0BD00BFF6
:104FA800A0003042FF05400080B592B000AFF86025
:104FB800B9607A603B60FDF77FFD38637B68BB634F
:104FC800BB687B63BB68002B07D1FB689B6B43F016
:104FD8000062FB689A630123BDE1FB6893F83430F3
:104FE800DBB2012B40F0B081FB6800229A63BA6BF8
:104FF8003B681A44FB68DB6D9A4207D9FB689B6BD8
:1050080043F00072FB689A630123A4E1FB68032262
:1050180083F83420FB681B680022DA62FB685B6C4B
:10502800012B02D0BB6B5B02BB634FF0FF337B618C
:105038003B685B02BB619023FB6102233B62002358
:105048007B620123BB62FB681B6807F114021146EF
:10505800184601F046FF3B68012B0AD9FB6802227B
:105068001A63FB681B68B96B184601F0A9FF7864DE
:1050780009E0FB6801221A63FB681B68B96B1846D4
:1050880001F07CFF78647B6C002B12D0FB681B68F6
:105098007A4A9A63FB689A6B7B6C1A43FB689A633B
:1050A800FB68012283F83420FB6800221A6301237D
:1050B80051E1BB69FB6361E0FB681B685B6B03F450
:1050C8000043002B3CD0FB6B002B39D000233B6402
:1050D80033E0FB681B68184601F084FEF862FB6A3F
:1050E800DAB27B6B1A707B6B01337B63FB6B013B22
:1050F800FB63FB6A1B0ADAB27B6B1A707B6B0133AA
:105108007B63FB6B013BFB63FB6A1B0CDAB27B6BBB
:105118001A707B6B01337B63FB6B013BFB63FB6AA0
:105128001B0EDAB27B6B1A707B6B01337B63FB6BF4
:10513800013BFB633B6C01333B643B6C072BC8D9D9
:10514800FDF7BAFC02463B6BD31A3A6D9A4202D974
:105158003B6D002B12D1FB681B68484A9A63FB68B9
:105168009B6B43F00042FB689A63FB68012283F85B
:105178003420FB6800221A630323ECE0FB681B68F9
:105188005A6B40F22A331340002B95D0FB681B68FA
:105198005B6B03F48073002B22D03B68012B1FD973
:1051A800FB685B6C032B1BD0FB681B68184601F07F
:1051B8006DFF78647B6C002B12D0FB681B682F4A4C
:1051C8009A63FB689A6B7B6C1A43FB689A63FB686B
:1051D800012283F83420FB6800221A630123BAE015
:1051E800FB681B685B6B03F00803002B12D0FB689D
:1051F8001B68224A9A63FB689B6B43F00802FB68B2
:105208009A63FB68012283F83420FB6800221A6342
:105218000123A0E0FB681B685B6B03F00203002B13
:1052280012D0FB681B68154A9A63FB689B6B43F0B6
:105238000202FB689A63FB68012283F83420FB684A
:1052480000221A63012386E0FB681B685B6B03F08E
:105258002003002B63D0FB681B68084A9A63FB682D
:105268009B6B43F02002FB689A63FB68012283F87A
:105278003420FB6800221A6301236CE0FF0540001C
:10528800FB681B68184601F0ADFDF862FB6ADAB2EC
:105298007B6B1A707B6B01337B63FB6B013BFB639E
:1052A800FB6A1B0ADAB27B6B1A707B6B01337B6378
:1052B800FB6B013BFB63FB6A1B0CDAB27B6B1A705E
:1052C8007B6B01337B63FB6B013BFB63FB6A1B0E50
:1052D800DAB27B6B1A707B6B01337B63FB6B013B30
:1052E800FB63FDF7E9FB02463B6BD31A3A6D9A4222
:1052F80002D93B6D002B12D1FB681B68184A9A63D0
:10530800FB689B6B43F00042FB689A63FB680122D1
:1053180083F83420FB6800221A6301231BE0FB6832
:105328001B685B6B03F40013002B02D0FB6B002B94
:10533800A6D1FB681B6840F23A529A63FB680122C7
:1053480083F83420002306E0FB689B6B43F000528F
:10535800FB689A63012318464837BD4680BD00BFE5
:10536800FF05400080B592B000AFF860B9607A6080
:105378003B60FDF7A1FB38637B68BB63BB687B635D
:10538800BB68002B07D1FB689B6B43F00062FB688E
:105398009A63012366E1FB6893F83430DBB2012B92
:1053A80040F05981FB6800229A63BA6B3B681A4443
:1053B800FB68DB6D9A4207D9FB689B6B43F0007270
:1053C800FB689A6301234DE1FB68032283F83420CC
:1053D800FB681B680022DA62FB685B6C012B02D059
:1053E800BB6B5B02BB634FF0FF33BB613B685B0287
:1053F800FB6190233B6200237B620023BB62012395
:10540800FB62FB681B6807F118021146184601F099
:1054180068FD3B68012B0AD9FB6820221A63FB68E8
:105428001B68B96B184601F00FFE786409E0FB6849
:1054380010221A63FB681B68B96B184601F0E2FD7D
:1054480078647B6C002B12D0FB681B68874A9A63D0
:10545800FB689A6B7B6C1A43FB689A63FB680122B2
:1054680083F83420FB6800221A630123FAE0FB6901
:10547800FB6365E0FB681B685B6B03F48043002BF0
:1054880040D0FB6B002B3DD000233B6437E07B6BA7
:105498001B787B617B6B01337B63FB6B013BFB639D
:1054A8007B6B1B781A027B6913437B617B6B01332F
:1054B8007B63FB6B013BFB637B6B1B781A047B698B
:1054C80013437B617B6B01337B63FB6B013BFB63AA
:1054D8007B6B1B781A067B6913437B617B6B0133FB
:1054E8007B63FB6B013BFB63FB681B6807F11402E2
:1054F8001146184601F082FC3B6C01333B643B6C5F
:10550800072BC4D9FDF7D8FA02463B6BD31A3A6D7C
:105518009A4202D93B6D002B12D1FB681B68534A93
:105528009A63FB689A6B7B6C1A43FB689A63FB6807
:10553800012283F83420FB6800221A63032391E0D8
:10554800FB681B685A6B40F21A331340002B91D04A
:10555800FB681B685B6B03F48073002B22D03B68ED
:10556800012B1FD9FB685B6C032B1BD0FB681B68E6
:10557800184601F08BFD78647B6C002B12D0FB6819
:105588001B683A4A9A63FB689A6B7B6C1A43FB6800
:105598009A63FB68012283F83420FB6800221A63AF
:1055A80001235FE0FB681B685B6B03F00803002BBB
:1055B80012D0FB681B682D4A9A63FB689B6B43F00B
:1055C8000802FB689A63FB68012283F83420FB68B1
:1055D80000221A63012345E0FB681B685B6B03F03C
:1055E8000203002B12D0FB681B68204A9A63FB68F1
:1055F8009B6B43F00202FB689A63FB68012283F805
:105608003420FB6800221A6301232BE0FB681B6827
:105618005B6B03F01003002B12D0FB681B68134A66
:105628009A63FB689B6B43F01002FB689A63FB6804
:10563800012283F83420FB6800221A63012311E059
:10564800FB681B6840F23A529A63FB68012283F8B0
:105658003420002306E0FB689B6B43F00052FB6894
:105668009A63012318464837BD4680BDFF054000B0
:1056780080B483B000AF786039607B685B6E9B0F45
:10568800DAB23B681A707B685B6E9B0EDBB203F084
:105698000F03DAB23B685A707B685B6E1B0EDBB295
:1056A80003F00303DAB23B689A707B685B6E1B0CED
:1056B800DAB23B68DA707B685B6E1B0ADAB23B6869
:1056C8001A717B685B6EDAB23B685A717B689B6EB5
:1056D8001B0D9AB23B68DA807B689B6E1B0CDBB2B1
:1056E80003F00F03DAB23B681A727B689B6EDB0B20
:1056F800DBB203F00103DAB23B685A727B689B6E37
:105708009B0BDBB203F00103DAB23B689A727B6849
:105718009B6E5B0BDBB203F00103DAB23B68DA7213
:105728007B689B6E1B0BDBB203F00103DAB23B68AC
:105738001A733B6800225A737B685B6C002B63D139
:105748007B689B6E9A0040F6FC7313407A68D26EB1
:10575800920F1A433B681A617B68DB6EDB0EDBB283
:1057680003F00703DAB23B681A757B68DB6E1B0E21
:10577800DBB203F00703DAB23B685A757B68DB6E6D
:105788005B0DDBB203F00703DAB23B689A757B68FE
:10579800DB6E9B0CDBB203F00703DAB23B68DA7509
:1057A8007B68DB6EDB0BDBB203F00703DAB23B6826
:1057B8001A763B681B695A1C7B685A653B681B7ED6
:1057C800DBB203F007030233012202FA03F37A681B
:1057D800526D03FB02F27B685A653B681B7ADBB2A9
:1057E80003F00F0301229A407B689A657B685B6D22
:1057F8007A68926D520A03FB02F27B68DA657B686D
:105808004FF400721A6631E07B685B6C012B1DD186
:105818007B689B6E1B0403F47C127B68DB6E1B0C9D
:105828001A433B681A613B681B6901339A027B681B
:105838005A657B685A6D7B68DA657B684FF400723D
:105848009A657B689A6D7B681A660FE07B681B68AF
:10585800584A9A637B689B6B43F080527B689A63D3
:105868007B68012283F8342001239DE07B68DB6E8E
:105878009B0BDBB203F00103DAB23B685A767B6814
:10588800DB6EDB09DBB203F07F03DAB23B689A76A2
:105898007B68DB6EDBB203F07F03DAB23B68DA7653
:1058A8007B681B6FDB0FDAB23B681A777B681B6F6C
:1058B8005B0FDBB203F00303DAB23B685A777B680D
:1058C8001B6F9B0EDBB203F00703DAB23B689A77D3
:1058D8007B681B6F9B0DDBB203F00F03DAB23B68EA
:1058E800DA777B681B6F5B0DDBB203F00103DAB27A
:1058F8003B6883F820203B68002283F821207B68DE
:105908001B6F1B0CDBB203F00103DAB23B6883F8B0
:1059180022207B681B6FDB0BDBB203F00103DAB2DA
:105928003B6883F823207B681B6F9B0BDBB203F07B
:105938000103DAB23B6883F824207B681B6F5B0B9A
:10594800DBB203F00103DAB23B6883F825207B68F9
:105958001B6F1B0BDBB203F00103DAB23B6883F861
:1059680026207B681B6F9B0ADBB203F00303DAB2C5
:105978003B6883F827207B681B6F1B0ADBB203F0A8
:105988000303DAB23B6883F828207B681B6F5B0847
:10599800DBB203F07F03DAB23B6883F829203B6867
:1059A800012283F82A20002318460C37BD4680BC04
:1059B800704700BFFF05400080B483B000AF786037
:1059C80039607B685A6C3B681A607B689A6C3B68E4
:1059D8005A607B68DA6C3B689A607B681A6D3B6832
:1059E800DA607B685A6D3B681A617B689A6D3B6820
:1059F8005A617B68DA6D3B689A617B681A6E3B680E
:105A0800DA61002318460C37BD4680BC704780B564
:105A180086B000AF78600023FB6007F10C031946DD
:105A2800786800F071F978617B69002B05D07B6894
:105A38009A6B7B691A437B689A63FB685B0A03F07D
:105A48000F033B613B6918461837BD4680BDB0B5AA
:105A580094B004AF78600123FB817B681B6818460B
:105A680001F0EBF90346002B02D14FF08063B8E058
:105A78007B685B6C032B2FD07B681B68184601F092
:105A8800CCFBF863FB6B002B01D0FB6BA9E07B68B8
:105A98001B680021184601F012FA02467B685A6713
:105AA8007B681B680421184601F009FA02467B68E6
:105AB8009A677B681B680821184601F000FA0246BD
:105AC8007B68DA677B681B680C21184601F0F7F9D8
