:020000040800F2
:1000000000000120C1190008AD170008B31700084F
:10001000B9170008BF170008C51700080000000046
:10002000000000000000000000000000CB170008E6
:10003000D717000800000000E3170008EF170008BA
:10004000091A0008091A0008091A0008091A000804
:10005000091A0008091A0008091A0008091A0008F4
:10006000091A0008091A0008091A0008091A0008E4
:10007000091A0008091A0008091A0008091A0008D4
:10008000091A0008091A0008091A0008091A0008C4
:10009000091A0008091A0008091A0008FB170008C5
:1000A000091A0008091A0008091A0008091A0008A4
:1000B000091A0008091A0008091A0008091A000894
:1000C000091A0008091A0008091A0008091A000884
:1000D000091A0008091A0008091A0008091A000874
:1000E000091A0008091A0008091A0008091A000864
:1000F000091A0008091A0008091A0008091A000854
:10010000091A0008091A0008091A0008091A000843
:10011000091A0008091A0008091A0008211800081D
:10012000091A0008091A0008091A0008091A000823
:1001300000000000000000000000000000000000BF
:1001400000000000000000000000000000000000AF
:10015000000000000000000000000000000000009F
:10016000000000000000000000000000000000008F
:10017000000000000000000000000000000000007F
:10018000000000000000000000000000000000006F
:10019000000000000000000000000000000000005F
:1001A000000000000000000000000000000000004F
:1001B000000000000000000000000000000000003F
:1001C000000000000000000000000000000000002F
:1001D000000000000000000000000000000000001F
:0401E0005FF8E0F1F3
:1001E80010B5054C237833B9044B13B10448AFF369
:1001F80000800123237010BDE001002000000000F2
:1002080014A9000808B5034B1BB103490348AFF311
:10021800008008BD00000000E401002014A90008C7
:10022800034613F8012B002AFBD1181A013870472E
:1002380081F0004102E000BF83F0004330B54FEA8F
:1002480041044FEA430594EA050F08BF90EA020FFC
:100258001FBF54EA000C55EA020C7FEA645C7FEA8F
:10026800655C00F0E2804FEA5454D4EB5555B8BFB2
:100278006D420CDD2C4480EA020281EA030382EA23
:10028800000083EA010180EA020281EA0303362DB5
:1002980088BF30BD11F0004F4FEA01314FF4801C88
:1002A8004CEA113102D0404261EB410113F0004F9A
:1002B8004FEA03334CEA133302D0524263EB430351
:1002C80094EA050F00F0A780A4F10104D5F1200EEF
:1002D8000DDB02FA0EFC22FA05F2801841F100014A
:1002E80003FA0EF2801843FA05F359410EE0A5F11E
:1002F80020050EF1200E012A03FA0EFC28BF4CF04F
:10030800020C43FA05F3C01851EBE37101F0004504
:1003180007D54FF0000EDCF1000C7EEB00006EEB11
:100328000101B1F5801F1BD3B1F5001F0CD349089B
:100338005FEA30004FEA3C0C04F101044FEA4452F2
:1003480012F5800F80F09A80BCF1004F08BF5FEA79
:10035800500C50F1000041EB045141EA050130BD59
:100368005FEA4C0C404141EB0101013C28BFB1F56B
:10037800801FE9D291F0000F04BF01460020B1FAB6
:1003880081F308BF2033A3F10B03B3F120020CDA89
:100398000C3208DD02F1140CC2F10C0201FA0CF067
:1003A80021FA02F10CE002F11402D8BFC2F1200CCC
:1003B80001FA02F120FA0CFCDCBF41EA0C01904082
:1003C800E41AA2BF01EB0451294330BD6FEA0404CB
:1003D8001F3C1CDA0C340EDC04F11404C4F12002B6
:1003E80020FA04F001FA02F340EA030021FA04F3C8
:1003F80045EA030130BDC4F10C04C4F1200220FA1F
:1004080002F001FA04F340EA0300294630BD21FA5C
:1004180004F0294630BD94F0000F83F4801306BF22
:1004280081F480110134013D4EE77FEA645C18BF16
:100438007FEA655C29D094EA050F08BF90EA020FAD
:1004480005D054EA000C04BF1946104630BD91EAA5
:10045800030F1EBF0021002030BD5FEA545C05D1A8
:100468004000494128BF41F0004130BD14F58004E7
:100478003CBF01F5801130BD01F0004545F0FE415B
:1004880041F470014FF0000030BD7FEA645C1ABF90
:10049800194610467FEA655C1CBF0B46024650EAC7
:1004A800013406BF52EA033591EA030F41F40021F3
:1004B80030BD00BF90F0000F04BF0021704730B579
:1004C8004FF4806404F132044FF000054FF000014E
:1004D80050E700BF90F0000F04BF0021704730B50F
:1004E8004FF4806404F1320410F0004548BF4042E4
:1004F8004FF000013EE700BF42004FEAE2014FEA39
:1005080031014FEA02701FBF12F07F4393F07F4F13
:1005180081F06051704732F07F4208BF704793F016
:100528007F4F04BF41F40021704730B54FF4607429
:1005380001F0004521F000411CE700BF50EA01022C
:1005480008BF704730B54FF000050AE050EA0102D5
:1005580008BF704730B511F0004502D5404261EB45
:1005680041014FF4806404F132045FEA915C3FF486
:10057800D8AE4FF003025FEADC0C18BF03325FEA23
:10058800DC0C18BF033202EBDC02C2F1200300FAD4
:1005980003FC20FA02F001FA03FE40EA0E0021FAF9
:1005A80002F11444BDE600BF70B54FF0FF0C4CF4E7
:1005B800E06C1CEA11541DBF1CEA135594EA0C0F99
:1005C80095EA0C0F00F0DEF82C4481EA030621EAD4
:1005D8004C5123EA4C5350EA013518BF52EA03350F
:1005E80041F4801143F4801338D0A0FB02CE4FF0C1
:1005F8000005E1FB02E506F00042E0FB03E54FF0F1
:100608000006E1FB03569CF0000F18BF4EF0010EE8
:10061800A4F1FF04B6F5007F64F5407404D25FEAE4
:100628004E0E6D4146EB060642EAC62141EA555197
:100638004FEAC52040EA5E504FEACE2EB4F1FD0CD9
:1006480088BFBCF5E06F1ED8BEF1004F08BF5FEA57
:10065800500E50F1000041EB045170BD06F0004609
:1006680046EA010140EA020081EA0301B4EB5C04B6
:10067800C2BFD4EB0C0541EA045170BD41F48011AE
:100688004FF0000E013C00F3AB8014F1360FDEBFD3
:10069800002001F0004170BDC4F10004203C35DAAF
:1006A8000C341BDC04F11404C4F1200500FA05F332
:1006B80020FA04F001FA05F240EA020001F00042D3
:1006C80021F0004110EBD37021FA04F642EB060149
:1006D8005EEA430E08BF20EAD37070BDC4F10C0473
:1006E800C4F1200500FA04F320FA05F001FA04F237
:1006F80040EA020001F0004110EBD37041F1000123
:100708005EEA430E08BF20EAD37070BDC4F120052D
:1007180000FA05F24EEA020E20FA04F301FA05F295
:1007280043EA020321FA04F001F0004121FA04F23D
:1007380020EA020000EBD3705EEA430E08BF20EA0D
:10074800D37070BD94F0000F0FD101F00046400047
:1007580041EB010111F4801F08BF013CF7D041EAC9
:10076800060195F0000F18BF704703F000465200CD
:1007780043EB030313F4801F08BF013DF7D043EA9E
:100788000603704794EA0C0F0CEA135518BF95EA54
:100798000C0F0CD050EA410618BF52EA4306D1D1DB
:1007A80081EA030101F000414FF0000070BD50EAFA
:1007B800410606BF1046194652EA430619D094EA84
:1007C8000C0F02D150EA013613D195EA0C0F05D16E
:1007D80052EA03361CBF104619460AD181EA0301C2
:1007E80001F0004141F0FE4141F470014FF000007A
:1007F80070BD41F0FE4141F4780170BD70B54FF015
:10080800FF0C4CF4E06C1CEA11541DBF1CEA135594
:1008180094EA0C0F95EA0C0F00F0A7F8A4EB050476
:1008280081EA030E52EA03354FEA013100F088806D
:100838004FEA03334FF0805545EA131343EA126336
:100848004FEA022245EA111545EA10654FEA0026EB
:100858000EF000419D4208BF964244F1FD0404F5A4
:10086800407402D25B084FEA3202B61A65EB030500
:100878005B084FEA32024FF480104FF4002CB6EBBD
:10088800020E75EB030E22BFB61A754640EA0C003D
:100898005B084FEA3202B6EB020E75EB030E22BF7D
:1008A800B61A754640EA5C005B084FEA3202B6EBBE
:1008B800020E75EB030E22BFB61A754640EA9C007D
:1008C8005B084FEA3202B6EB020E75EB030E22BF4D
:1008D800B61A754640EADC0055EA060E18D04FEA0B
:1008E800051545EA16754FEA06164FEAC30343EAAB
:1008F80052734FEAC2025FEA1C1CC0D111F4801F78
:100908000BD141EA00014FF000004FF0004CB6E770
:1009180011F4801F04BF01430020B4F1FD0C88BF0F
:10092800BCF5E06F3FF6AFAEB5EB030C04BFB6EB1A
:10093800020C5FEA500C50F1000041EB045170BD0D
:100948000EF0004E4EEA113114EB5C04C2BFD4EB3A
:100958000C0541EA045170BD41F480114FF0000EBE
:10096800013C90E645EA060E8DE60CEA135594EA3A
:100978000C0F08BF95EA0C0F3FF43BAF94EA0C0F3D
:100988000AD150EA01347FF434AF95EA0C0F7FF4B2
:1009980025AF104619462CE795EA0C0F06D152EA06
:1009A80003353FF4FDAE1046194622E750EA4106EA
:1009B80018BF52EA43067FF4C5AE50EA41047FF4FB
:1009C8000DAF52EA43057FF4EBAE12E74FF0FF3C60
:1009D80006E000BF4FF0010C02E000BF4FF0010C31
:1009E8004DF804CD4FEA410C7FEA6C5C4FEA430CAA
:1009F80018BF7FEA6C5C1BD001B050EA410C0CBFF9
:100A080052EA430C91EA030F02BF90EA020F00205A
:100A1800704710F1000F91EA030F58BF994208BFC1
:100A280090422CBFD8176FEAE37040F0010070477E
:100A38004FEA410C7FEA6C5C02D150EA013C07D1D5
:100A48004FEA430C7FEA6C5CD6D152EA033CD3D020
:100A58005DF8040B704700BF8446104662468C461A
:100A68001946634600E000BF01B5FFF7B7FF00284D
:100A780048BF10F1000F01BD4DF808EDFFF7F4FF76
:100A88000CBF012000205DF808FB00BF4DF808ED01
:100A9800FFF7EAFF34BF012000205DF808FB00BF24
:100AA8004DF808EDFFF7E0FF94BF012000205DF846
:100AB80008FB00BF4DF808EDFFF7CEFF94BF0120FB
:100AC80000205DF808FB00BF4DF808EDFFF7C4FFF4
:100AD80034BF012000205DF808FB00BF4FEA410C3D
:100AE8007FEA6C5C02D150EA013C0AD14FEA430C20
:100AF8007FEA6C5C02D152EA033C02D14FF000005D
:100B080070474FF0010070474FEA410212F500129A
:100B180015D211D56FF47873B3EB625212D94FEA3C
:100B2800C12343F0004343EA505311F0004F23FA26
:100B380002F018BF404270474FF00000704750EA7B
:100B4800013005D111F0004008BF6FF00040704738
:100B58004FF00000704700BF4A0011D212F5001292
:100B680011D20DD56FF47873B3EB62520ED44FEAFD
:100B7800C12343F0004343EA505323FA02F070477D
:100B88004FF00000704750EA013002D14FF0FF30BB
:100B980070474FF0000070474FEA4102B2F1E0435E
:100BA80024BFB3F5001CDCF1FE5C0DD901F0004C4C
:100BB8004FEAC0024CEA5070B2F1004F40EB83009C
:100BC80008BF20F00100704711F0804F21D113F1C8
:100BD8003872BCBF01F00040704741F480114FEA01
:100BE8005252C2F11802C2F1200C10FA0CF320FA8A
:100BF80002F018BF40F001004FEAC1234FEAD323A7
:100C080003FA0CFC40EA0C0023FA02F34FEA430310
:100C1800CCE77FEA625307D150EA01331EBF4FF099
:100C2800FE4040F44000704701F0004040F0FE40B4
:100C380040F40000704700BF38B505460C46002256
:100C4800002328462146FFF721FF28B928462146D8
:100C5800BDE8384000F00AB8284604F1004100F029
:100C680005F8404261EB410138BD00BFD0B5002214
:100C78000B4B06460F46FFF797FCFFF76DFF044640
:100C8800FFF718FC0022074BFFF78EFC02460B46C5
:100C980030463946FFF7D0FAFFF75EFF2146D0BD50
:100CA8000000F03D0000F04180B500AF01224FF494
:100CB8000071054801F070F900224FF400710248F4
:100CC80001F06AF900BF80BD0014014080B483B010
:100CD80000AF00237B6003E000BF7B6801337B60CB
:100CE8007B6841F287329342F6D900BF00BF0C37C8
:100CF800BD4680BC704780B500AF012000F06EF89B
:100D080000BF80BD80B584B000AF03463A60FB7178
:100D18000B46BB713868FFF783FAB860FB79002B84
:100D280006D1BB79803BDBB2184600F057F805E0E6
:100D3800BB79403BDBB2184600F050F80023FB605B
:100D480009E03A68FB6813441B78184600F068F815
:100D5800FB680133FB60FA68BB689A42F1D300BFB5
:100D680000BF1037BD4680BD80B582B000AF0346D6
:100D7800FB71FB7903F00103DBB21A464FF4806183
:100D8800154801F009F9FB795B08DBB203F00103B0
:100D9800DBB21A464FF400610F4801F0FDF8FB7909
:100DA8009B08DBB203F00103DBB21A464FF4805113
:100DB800094801F0F1F8FB79DB08DBB203F0010325
:100DC800DBB21A464FF40051034801F0E5F800BFC2
:100DD8000837BD4680BD00BF0014014080B582B011
:100DE80000AF0346FB71FFF771FF00224FF48071DB
:100DF8000A4801F0D1F8FB791B09DBB21846FFF766
:100E0800B3FFFFF751FFFB791846FFF7ADFFFFF778
:100E18004BFF00BF0837BD4680BD00BF001401402E
:100E280080B582B000AF0346FB71FFF74FFF012288
:100E38004FF480710A4801F0AFF8FB791B09DBB267
:100E48001846FFF791FFFFF72FFFFB791846FFF7CA
:100E58008BFFFFF729FF00BF0837BD4680BD00BFE5
:100E68000014014080B500AF0F2000F0FDFD032005
:100E7800FFF77AFFFFF718FF052000F0F5FDFFF7F1
:100E880013FFC82000F0F0FDFFF70EFF012000F06F
:100E9800EBFD0220FFF768FFFFF706FF2820FFF7AA
:100EA8009DFF282000F0E0FD0620FFF797FF0C20AB
:100EB800FFF794FF00BF80BD80B500AF00F0A2FD32
:100EC80000F01EF800F0D4F900F07AF800F0C2F84B
:100ED80000F0E0F800F0A2F904F0DEFEFFF7C2FF30
:100EE800FFF709FF054A00210020FFF70BFF4FF429
:100EF8007A7000F0B9FDFFF7FEFEFEE730A90008A2
:100F080080B596B000AF07F13003282200211846BB
:100F180005F0C4F807F11C0300221A605A609A60B1
:100F2800DA601A613B1D00221A605A609A60DA6022
:100F38001A615A6109233B634FF480337B630023B2
:100F4800BB6301233B640123BB640223FB644FF4AE
:100F580080333B654FF4E0137B6507F13003184697
:100F680001F060F80346002B01D000F045FA0F238A
:100F7800FB6102233B6200237B624FF48063BB6208
:100F88000023FB6207F11C030221184601F0CCFA8A
:100F98000346002B01D000F02FFA01237B604FF4A9
:100FA8000073BB603B1D184601F086FC0346002B0E
:100FB80001D000F021FA00BF5837BD4680BD0000BF
:100FC80080B582B000AF3B1D00210A461A800A4650
:100FD8009A7000233B601D4B1D4A1A601B4B4FF053
:100FE800FF325A60194B4FF480729A60174801F02B
:100FF800FDFD0346002B01D000F0FEF912233B71E2
:1010080014237B711723BB713B1D012219460F481E
:1010180001F082FE0346002B01D000F0EDF9012318
:101028003B7001237B700123BB702223FB703B467E
:1010380001221946054801F007FF0346002B01D09D
:1010480000F0DAF900BF0837BD4680BDFC0100207A
:101058000028004080B400AF0C4B0D4A1A600B4BBF
:1010680000225A60094B00229A60084B0022DA607D
:10107800064B00221A61054B00225A61034B0022DD
:101088009A6100BFBD4680BC704700BF10020020B7
:101098000080014080B596B000AF07F148030022F8
:1010A8001A605A609A60DA6007F1400300221A60F9
:1010B8005A6007F1240300221A605A609A60DA60C5
:1010C8001A615A619A613B1D20220021184604F0DA
:1010D800E5FF504B504A1A604E4B40F252425A605C
:1010E8004C4B00229A604B4BFE22DA60494B00229F
:1010F8001A61484B00225A61464B00229A614548C2
:1011080003F088F80346002B01D000F075F94FF47E
:101118008053BB6407F1480319463E4803F048FB77
:101128000346002B01D000F067F93A4803F022F992
:101138000346002B01D000F05FF900233B64002335
:101148007B6407F140031946324803F0D5FE034695
:10115800002B01D000F050F960237B620023BB62B2
:101168000023FB6200233B6300237B630023BB63F4
:101178000023FB6307F1240300221946254803F0E6
:1011880059FA0346002B01D000F036F907F1240381
:10119800042219461F4803F04DFA0346002B01D0DC
:1011A80000F02AF907F1240308221946194803F028
:1011B80041FA0346002B01D000F01EF907F1240381
:1011C8000C221946134803F035FA0346002B01D0C8
:1011D80000F012F900237B600023BB600023FB6052
:1011E80000233B6100237B614FF40053BB61002364
:1011F8003B623B1D1946074803F0EAFE0346002BF5
:1012080001D000F0F9F8034800F0BAF900BF5837E8
:10121800BD4680BD94020020002C014080B500AF7F
:10122800114B124A1A60104B4FF4E1325A600E4BC0
:1012380000229A600C4B0022DA600B4B00221A61E4
:10124800094B0C225A61084B00229A61064B002276
:10125800DA61054803F01FFF0346002B01D000F0B8
:10126800CBF800BF80BD00BFDC0200200038014081
:1012780080B58AB000AF07F1180300221A605A60DF
:101288009A60DA604D4B9B694C4A43F010039361B6
:101298004A4B9B6903F010037B617B69474B9B6951
:1012A800464A43F080039361444B9B6903F08003F3
:1012B8003B613B69414B9B69404A43F0040393619E
:1012C8003E4B9B6903F00403FB60FB683B4B9B6947
:1012D8003A4A43F040039361384B9B6903F040035B
:1012E800BB60BB68354B9B69344A43F0200393616C
:1012F800324B9B6903F020037B607B6800223C2112
:101308002F4800F049FE00220D212E4800F044FE2F
:1013180000224FF4FE412C4800F03EFE3C23BB6106
:101328000123FB6100233B6202237B6207F1180360
:101338001946234800F09CFC4FF47073BB61234BA3
:10134800FB6100233B6207F1180319461C4800F0B3
:101358008FFC0D23BB610123FB6100233B62022349
:101368007B6207F118031946164800F081FC382300
:10137800BB610023FB6101233B6207F11803194697
:10138800134800F075FC4FF4FE43BB610123FB6179
:1013980000233B6202237B6207F1180319460A48BF
:1013A80000F066FC00220021172000F036FC172010
:1013B80000F04FFC00BF2837BD4680BD001002403A
:1013C800001C0140001001400014014000001110F1
:1013D8000008014080B582B000AF78607B681B6868
:1013E800044A934201D100F023FB00BF0837BD46F1
:1013F80080BD00BF0014004080B400AF72B600BFCB
:10140800FEE7000080B483B000AF0E4B9B690D4A25
:1014180043F0010393610B4B9B6903F001037B606D
:101428007B68084BDB69074A43F08053D361054B5F
:10143800DB6903F080533B603B6800BF0C37BD4657
:1014480080BC70470010024080B584B000AF78605F
:101458007B681B680B4A934210D100F0D7FD0A4BFA
:10146800DB69094A43F00063D361074BDB6903F08A
:101478000063FB60FB68054B01221A6000BF103750
:10148800BD4680BD00280040001002403C04424296
:1014980080B58AB000AF786007F1180300221A609F
:1014A8005A609A60DA607B681B68224A93423CD192
:1014B800214B5B69204A43F4806353611E4B5B698F
:1014C80003F480637B617B691B4B9B691A4A43F079
:1014D80010039361184B9B6903F010033B613B6950
:1014E800154B9B69144A43F020039361124B9B6987
:1014F80003F02003FB60FB684FF48853BB610223B1
:10150800FB6103237B6207F1180319460B4800F0BF
:10151800AFFB0423BB610223FB6103237B6207F15A
:1015280018031946064800F0A3FB00BF2837BD463C
:1015380080BD00BF00800140001002400010014043
:101548000014014080B485B000AF78607B681B68E8
:10155800094A93420BD1094B9B69084A43F400633B
:101568009361064B9B6903F40063FB60FB6800BF53
:101578001437BD4680BC7047002C01400010024063
:1015880080B588B000AF786007F10C0300221A60BC
:101598005A609A60DA607B681B68194A93422AD1BC
:1015A800184B9B69174A43F040039361154B9B699D
:1015B80003F04003BB60BB684FF4D443FB600223D5
:1015C8003B610223BB6107F10C0319460E4800F08A
:1015D8004FFB0E4B5B68FB61FB6923F0C003FB61AB
:1015E800FB6943F0E063FB61FB6943F0C003FB6107
:1015F800064AFB69536000BF2037BD4680BD00BF67
:10160800002C014000100240001801400000014079
:1016180080B588B000AF786007F1100300221A6027
:101628005A609A60DA607B681B681C4A934231D121
:101638001B4B9B691A4A43F480439361184B9B697F
:1016480003F48043FB60FB68154B9B69144A43F025
:1016580004039361124B9B6903F00403BB60BB68EE
:101668004FF400733B6102237B610323FB6107F1A5
:10167800100319460B4800F0FBFA4FF480633B61F6
:1016880000237B610023BB6107F11003194605485D
:1016980000F0EEFA00BF2037BD4680BD003801409B
:1016A800001002400008014080B58EB000AF78609D
:1016B8000023FB620023BB62002387F83330344BDE
:1016C800DB69334A43F02003D361314BDB6903F014
:1016D8002003FB60FB6807F1100207F114031146B1
:1016E800184601F09BF83B6AFB62FB6A002B03D1AA
:1016F80001F06CF8786304E001F068F803465B00D9
:101708007B637B6B234AA2FB03239B0C013BBB62DD
:10171800214B224A1A60204B40F2E732DA601E4A17
:10172800BB6A53601C4B00221A611B4B00229A6053
:10173800194B00229A61184802F06CFD034687F89D
:10174800333097F83330002B1BD1134802F0B2FD29
:10175800034687F8333097F83330002B11D1372000
:1017680000F077FA7B680F2B08D8002279683720B9
:1017780000F053FA0A4A7B68136002E0012387F8F5
:10178800333097F8333018463837BD4680BD00BF30
:101798000010024083DE1B43200300200014004099
:1017A8000400002080B400AFFEE780B400AFFEE77D
:1017B80080B400AFFEE780B400AFFEE780B400AFAE
:1017C800FEE780B400AF00BFBD4680BC704780B460
:1017D80000AF00BFBD4680BC704780B400AF00BFFB
:1017E800BD4680BC704780B400AF00BFBD4680BC1A
:1017F800704780B500AF402000F0E6FB802000F085
:10180800E3FB4FF4807000F0DFFB4FF4007000F052
:10181800DBFB00BF80BD000080B500AF024802F0CE
:1018280001FE00BF80BD00BF2003002080B400AFD0
:1018380001231846BD4680BC704780B582B000AF12
:101848007860396004F000FC034616221A604FF0F5
:10185800FF3318460837BD4680BD80B582B000AF5B
:1018680078604FF0FF317868FFF7E7FFFEE780B553
:1018780086B000AFF860B9607A6000237B610AE047
:10188800AFF300800146BB685A1CBA60CAB21A702E
:101898007B6901337B617A697B689A42F0DB7B68FC
:1018A80018461837BD4680BD80B586B000AFF860D1
:1018B800B9607A6000237B6109E0BB685A1CBA6092
:1018C8001B781846AFF300807B6901337B617A6926
:1018D8007B689A42F1DB7B6818461837BD4680BDA5
:1018E80080B483B000AF78604FF0FF3318460C37F0
:1018F800BD4680BC704780B483B000AF7860396063
:101908003B684FF400525A60002318460C37BD4616
:1019180080BC704780B483B000AF7860012318465C
:101928000C37BD4680BC704780B485B000AFF86006
:10193800B9607A60002318461437BD4680BC7047EA
:1019480080B586B000AF7860144A154BD31A7B6116
:101958007B693B61134B1B68002B02D1114B124A68
:101968001A60104B1A687B6813443A699A4207D286
:1019780004F06AFB03460C221A604FF0FF3309E0BB
:10198800084B1B68FB60074B1A687B681344054AC1
:101998001360FB6818461837BD4680BD000001205B
:1019A80000040000680300209803002080B400AF02
:1019B80000BFBD4680BC70470C480D490D4A002346
:1019C80002E0D458C4500433C4188C42F9D30A4AEC
:1019D8000A4C002301E013600432A242FBD3FFF754
:1019E800E5FF04F037FBFFF767FA704700000020B7
:1019F800E00100203CAE0008E00100209403002034
:101A0800FEE7000080B500AF084B1B68074A43F0AB
:101A180010031360032000F0F5F80F20FFF744FED1
:101A2800FFF7F0FC0023184680BD00BF00200240ED
:101A380080B400AF054B1B781A46054B1B6813444E
:101A4800034A136000BFBD4680BC704708000020F1
:101A58006C03002080B400AF024B1B681846BD46DB
:101A680080BC70476C03002080B584B000AF7860FC
:101A7800FFF7F0FFB8607B68FB60FB68B3F1FF3FDE
:101A880005D00A4B1B781A46FB681344FB6000BF5D
:101A9800FFF7E0FF0246BB68D31AFA689A42F7D804
:101AA80000BF00BF1037BD4680BD00BF0800002042
:101AB80080B485B000AF78607B6803F00703FB60F3
:101AC8000C4BDB68BB60BA684FF6FF031340BB6082
:101AD800FB681A02BB68134343F0BF6343F4003347
:101AE800BB60044ABB68D36000BF1437BD4680BCE6
:101AF800704700BF00ED00E080B400AF044BDB6826
:101B08001B0A03F007031846BD4680BC704700BF98
:101B180000ED00E080B483B000AF0346FB7197F995
:101B28000730002B0BDBFB7903F01F02064997F9FE
:101B380007305B09012000FA02F241F8232000BFB8
:101B48000C37BD4680BC704700E100E080B483B02C
:101B580000AF03463960FB7197F90730002B0ADBA9
:101B68003B68DAB20C4997F907301201D2B20B443C
:101B780083F800230AE03B68DAB20849FB7903F0EE
:101B88000F03043B1201D2B20B441A7600BF0C3784
:101B9800BD4680BC704700BF00E100E000ED00E0FA
:101BA80080B489B000AFF860B9607A60FB6803F070
:101BB8000703FB61FB69C3F10703042B28BF042358
:101BC800BB61FB690433062B02D9FB69033B00E0C8
:101BD80000237B614FF0FF32BB6902FA03F3DA435B
:101BE800BB681A407B699A404FF0FF317B6901FA64
:101BF80003F3D9437B680B40134318462437BD468B
:101C080080BC704780B582B000AF78607868FFF715
:101C18004FFF00BF0837BD4680BD80B586B000AF16
:101C28000346B9607A60FB7300237B61FFF764FFAA
:101C380078617A68B9687869FFF7B2FF024697F960
:101C48000F3011461846FFF781FF00BF1837BD4611
:101C580080BD80B582B000AF0346FB7197F90730AD
:101C68001846FFF757FF00BF0837BD4680BD000084
:101C780080B48BB000AF7860396000237B620023AA
:101C88003B6279E101227B6A02FA03F3FB613B685C
:101C98001B68FA691340BB61BA69FB699A4240F054
:101CA80068813B685B68964A93425ED0944A934247
:101CB80075D8944A934258D0924A93426FD8924A20
:101CC800934252D0904A934269D8904A93424CD05A
:101CD8008E4A934263D88E4A934246D08C4A9342A6
:101CE8005DD8122B2AD8122B59D801A252F823F00A
:101CF800731D00084D1D00085F1D0008A11D000888
:101D0800A71D0008A71D0008A71D0008A71D00089B
:101D1800A71D0008A71D0008A71D0008A71D00088B
:101D2800A71D0008A71D0008A71D0008A71D00087B
:101D3800A71D0008551D0008691D0008754A934233
:101D480013D02CE03B68DB683B6229E03B68DB682A
:101D580004333B6224E03B68DB6808333B621FE0E6
:101D68003B68DB680C333B621AE03B689B68002BDE
:101D780002D104233B6213E03B689B68012B05D129
:101D880008233B627B68FA691A6109E008233B6211
:101D98007B68FA695A6103E000233B6200E000BFF8
:101DA800BB69FF2B01D87B6801E07B6804337B614A
:101DB800BB69FF2B02D87B6A9B0002E07B6A083B69
:101DC8009B003B617B691A680F213B6901FA03F3A9
:101DD800DB431A40396A3B6901FA03F31A437B690A
:101DE8001A603B685B6803F08053002B00F0C180E9
:101DF800494B9B69484A43F001039361464B9B69F1
:101E080003F00103BB60BB68444A7B6A9B0802334A
:101E180052F82330FB607B6A03F003039B000F2218
:101E280002FA03F3DB43FA681340FB607B683C4A21
:101E380093421FD07B683B4A934219D07B683A4A49
:101E4800934213D07B68394A93420DD07B68384A55
:101E5800934207D07B68374A934201D105230AE0B1
:101E6800062308E0042306E0032304E0022302E03B
:101E7800012300E000237A6A02F0030292009340F3
:101E8800FA681343FB6025497B6A9B080233FA68AA
:101E980041F823203B685B6803F48033002B06D0AD
:101EA800254B1A682449BB6913430B6006E0224B93
:101EB8001A68BB69DB43204913400B603B685B68C9
:101EC80003F40033002B06D01B4B5A681A49BB6930
:101ED80013434B6006E0184B5A68BB69DB4316494D
:101EE80013404B603B685B6803F48013002B25D0DC
:101EF800114B9A681049BB6913438B6025E000BFFA
:101F080000003210000031100000221000002110E3
:101F180000001210000011100010024000000140E3
:101F280000080140000C014000100140001401406D
:101F380000180140001C014000040140154B9A683C
:101F4800BB69DB43134913408B603B685B6803F450
:101F58000013002B06D00F4BDA680E49BB691343F8
:101F6800CB6006E00B4BDA68BB69DB4309491340D9
:101F7800CB607B6A01337B623B681A687B6A22FA12
:101F880003F3002B7FF47EAE00BF00BF2C37BD46A5
:101F980080BC70470004014080B483B000AF786013
:101FA8000B467B8013467B707B78002B03D07A88A6
:101FB8007B681A6103E07B881A047B681A6100BF9A
:101FC8000C37BD4680BC704780B582B000AF034671
:101FD800FB80084B5A69FB881340002B06D0054A42
:101FE800FB885361FB88184600F006F800BF0837E5
:101FF800BD4680BD0004014080B483B000AF0346F5
:10200800FB8000BF0C37BD4680BC704780B400AF72
:10201800034B01221A6000BFBD4680BC704700BF59
:1020280020000E4280B586B000AF78607B68002B38
:1020380001D1012372E27B681B6803F00103002BC6
:1020480000F08780924B5B6803F00C03042B0CD0E4
:102058008F4B5B6803F00C03082B12D18C4B5B6829
:1020680003F48033B3F5803F0BD1894B1B6803F42D
:102078000033002B6CD07B685B68002B68D1012390
:102088004CE27B685B68B3F5803F06D1804B1B68E8
:102098007F4A43F4803313602EE07B685B68002B33
:1020A8000CD17B4B1B687A4A23F480331360784B3E
:1020B8001B68774A23F4802313601DE07B685B6804
:1020C800B3F5A02F0CD1724B1B68714A43F48023DF
:1020D80013606F4B1B686E4A43F4803313600BE048
:1020E8006B4B1B686A4A23F480331360684B1B6888
:1020F800674A23F4802313607B685B68002B13D046
:10210800FFF7A8FC386108E0FFF7A4FC02463B692A
:10211800D31A642B01D9032300E25D4B1B6803F437
:102128000033002BF0D014E0FFF794FC386108E08E
:10213800FFF790FC02463B69D31A642B01D90323AD
:10214800ECE1534B1B6803F40033002BF0D100E0A3
:1021580000BF7B681B6803F00203002B63D04C4B65
:102168005B6803F00C03002B0BD0494B5B6803F052
:102178000C03082B1CD1464B5B6803F48033002BFF
:1021880016D1434B1B6803F00203002B05D07B6874
:102198001B69012B01D00123C0E13D4B1B6823F0D3
:1021A800F8027B685B69DB00394913430B603AE04E
:1021B8007B681B69002B20D0364B01221A60FFF781
:1021C80049FC386108E0FFF745FC02463B69D31A31
:1021D800022B01D90323A1E12D4B1B6803F0020355
:1021E800002BF0D02A4B1B6823F0F8027B685B6950
:1021F800DB00274913430B6015E0264B00221A60C9
:10220800FFF728FC386108E0FFF724FC02463B6929
:10221800D31A022B01D9032380E11D4B1B6803F05D
:102228000203002BF0D17B681B6803F00803002B26
:102238003AD07B689B69002B19D0174B01221A6092
:10224800FFF708FC386108E0FFF704FC02463B6929
:10225800D31A022B01D9032360E10D4B5B6A03F00B
:102268000203002BF0D0012000F008FB1CE00A4B11
:1022780000221A60FFF7EEFB38610FE0FFF7EAFB78
:1022880002463B69D31A022B08D9032346E100BF53
:10229800001002400000424280044242924B5B6AB6
:1022A80003F00203002BE9D17B681B6803F00403E9
:1022B800002B00F0A6800023FB758B4BDB6903F035
:1022C8008053002B0DD1884BDB69874A43F080533C
:1022D800D361854BDB6903F08053BB60BB68012386
:1022E800FB75824B1B6803F48073002B18D17F4B5E
:1022F8001B687E4A43F480731360FFF7ABFB3861B9
:1023080008E0FFF7A7FB02463B69D31A642B01D903
:10231800032303E1754B1B6803F48073002BF0D093
:102328007B68DB68012B06D16F4B1B6A6E4A43F052
:10233800010313622DE07B68DB68002B0CD16A4B2C
:102348001B6A694A23F001031362674B1B6A664ADA
:1023580023F0040313621CE07B68DB68052B0CD1B7
:10236800614B1B6A604A43F0040313625E4B1B6AAD
:102378005D4A43F0010313620BE05B4B1B6A5A4A48
:1023880023F001031362584B1B6A574A23F00403D6
:1023980013627B68DB68002B15D0FFF75BFB3861A5
:1023A8000AE0FFF757FB02463B69D31A41F288322D
:1023B800934201D90323B1E04B4B1B6A03F002039C
:1023C800002BEED014E0FFF745FB38610AE0FFF779
:1023D80041FB02463B69D31A41F28832934201D944
:1023E80003239BE0404B1B6A03F00203002BEED152
:1023F800FB7D012B05D13C4BDB693B4A23F0805325
:10240800D3617B68DB69002B00F08780364B5B6803
:1024180003F00C03082B61D07B68DB69022B46D1E3
:10242800334B00221A60FFF715FB386108E0FFF70D
:1024380011FB02463B69D31A022B01D903236DE035
:10244800294B1B6803F00073002BF0D17B681B6AD3
:10245800B3F5803F08D1244B5B6823F400327B68D6
:102468009B68214913434B601F4B5B6823F474122C
:102478007B68196A7B685B6A0B431B4913434B6093
:102488001B4B01221A60FFF7E5FA386108E0FFF7F5
:10249800E1FA02463B69D31A022B01D903233DE036
:1024A800114B1B6803F00073002BF0D035E0104B84
:1024B80000221A60FFF7CEFA386108E0FFF7CAFA7F
:1024C80002463B69D31A022B01D9032326E0064BA7
:1024D8001B6803F00073002BF0D11EE07B68DB69FA
:1024E800012B07D1012319E00010024000700040C1
:1024F800600042420B4B5B68FB60FB6803F4803270
:102508007B681B6A9A4206D1FB6803F470127B68E9
:102518005B6A9A4201D0012300E00023184618376D
:10252800BD4680BD0010024080B584B000AF786021
:1025380039607B68002B01D10123D0E06A4B1B680E
:1025480003F007033A689A4210D9674B1B6823F0D7
:10255800070265493B6813430B60634B1B6803F034
:1025680007033A689A4201D00123B8E07B681B68E8
:1025780003F00203002B20D07B681B6803F00403E0
:10258800002B05D0594B5B68584A43F4E06353600D
:102598007B681B6803F00803002B05D0534B5B686E
:1025A800524A43F460535360504B5B6823F0F00287
:1025B8007B689B684D4913434B607B681B6803F03D
:1025C8000103002B40D07B685B68012B07D1474B88
:1025D8001B6803F40033002B15D101237FE07B68CF
:1025E8005B68022B07D1414B1B6803F00073002B7B
:1025F80009D1012373E03D4B1B6803F00203002B54
:1026080001D101236BE0394B5B6823F003027B683F
:102618005B68364913434B60FFF71CFAF8600AE021
:10262800FFF718FA0246FB68D31A41F28832934240
:1026380001D9032353E02D4B5B6803F00C027B6840
:102648005B689B009A42EBD1274B1B6803F007039A
:102658003A689A4210D2244B1B6823F00702224999
:102668003B6813430B60204B1B6803F007033A6871
:102678009A4201D0012332E07B681B6803F004030F
:10268800002B08D0194B5B6823F4E0627B68DB6899
:10269800164913434B607B681B6803F00803002B43
:1026A80009D0124B5B6823F460527B681B69DB001E
:1026B8000E4913434B6000F021F802460B4B5B6850
:1026C8001B0903F00F030A49CB5C22FA03F3094AFA
:1026D8001360094B1B681846FEF7E6FF00231846EF
:1026E8001037BD4680BD00BF0020024000100240E8
:1026F80064A90008000000200400002090B48AB0FB
:1027080000AF294B3C1D0FCB84E80F0040F201239A
:102718003B800023FB610023BB6100237B62002315
:102728007B6100233B62214B5B68FB61FB6903F023
:102738000C03042B02D0082B03D02BE01C4B3B626C
:102748002BE0FB699B0C03F00F0328333B4413F881
:10275800243C7B61FB6903F48033002B12D0134BBC
:102768005B685B0C03F0010328333B4413F8283CF7
:10277800BB617B690E4A03FB02F2BB69B2FBF3F350
:102788007B6204E07B690B4A02FB03F37B627B6A92
:102798003B6202E0064B3B6200BF3B6A18462837A3
:1027A800BD4690BC704700BF44A900080010024015
:1027B80000127A0000093D0080B400AF024B1B688C
:1027C8001846BD4680BC70470000002080B500AFA9
:1027D800FFF7F2FF0246054B5B681B0A03F007038D
:1027E8000349CB5C22FA03F3184680BD001002406F
:1027F80074A9000880B500AFFFF7DEFF0246054B5D
:102808005B68DB0A03F007030349CB5C22FA03F396
:10281800184680BD0010024074A9000880B483B037
:1028280000AF786039607B680F221A60114B5B68D3
:1028380003F003027B685A600E4B5B6803F0F002FA
:102848007B689A600B4B5B6803F4E0627B68DA6034
:10285800084B5B68DB0803F4E0627B681A61064B8F
:102868001B6803F007023B681A6000BF0C37BD46BF
:1028780080BC7047001002400020024080B485B040
:1028880000AF78600A4B1B680A4AA2FB03235B0A65
:102898007A6802FB03F3FB6000BFFB685A1EFA600C
:1028A800002BF9D100BF00BF1437BD4680BC70476C
:1028B80000000020D34D621080B586B000AF78606C
:1028C80000233B610023FB607B681B6803F0010366
:1028D800002B7DD00023FB754F4BDB6903F0805341
:1028E800002B0DD14C4BDB694B4A43F08053D3612D
:1028F800494BDB6903F08053BB60BB680123FB7560
:10290800464B1B6803F48073002B18D1434B1B689C
:10291800424A43F480731360FFF79CF8386108E07B
:10292800FFF798F802463B69D31A642B01D90323B1
:102938006DE03A4B1B6803F48073002BF0D0364BE4
:102948001B6A03F44073FB60FB68002B2ED07B6886
:102958005B6803F44073FA689A4227D02E4B1B6ACF
:1029680023F44073FB602E4B01221A602C4B00228B
:102978001A60294AFB681362FB6803F00103002B05
:1029880014D0FFF767F838610AE0FFF763F80246EA
:102998003B69D31A41F28832934201D9032336E0C6
:1029A8001D4B1B6A03F00203002BEED01A4B1B6A67
:1029B80023F440727B685B68174913430B62FB7D05
:1029C800012B05D1144BDB69134A23F08053D361E3
:1029D8007B681B6803F00203002B08D00E4B5B6872
:1029E80023F440427B689B680B4913434B607B6828
:1029F8001B6803F01003002B08D0074B5B6823F417
:102A080080027B685B69044913434B6000231846C6
:102A18001837BD4680BD00BF00100240007000405E
:102A28004004424290B58DB000AF78606A4B07F120
:102A38000C040FCB84E80F0040F201233B810023F4
:102A48007B620023FB6200233B620023FB610023BF
:102A5800BB627B68013B0F2B00F2B48001A252F8E5
:102A680023F000BF4B2B0008B12B0008CD2B00082A
:102A78003B2B0008CD2B0008CD2B0008CD2B0008E0
:102A8800432B0008CD2B0008CD2B0008CD2B0008C8
:102A9800CD2B0008CD2B0008CD2B0008CD2B00082E
:102AA800AD2A00084D4B5B68FB614C4B1B6803F07B
:102AB8008073002B00F08880FB699B0C03F00F03E8
:102AC80030333B4413F8243C3B62FB6903F4803306
:102AD800002B17D0414B5B685B0C03F001033033CC
:102AE8003B4413F8283C7B62FB6903F48033002BDA
:102AF8000DD03B4A7B6AB2FBF3F23B6A02FB03F35D
:102B0800FB6204E03B6A374A02FB03F3FB62334B88
:102B18005B6803F48003B3F5800F02D1FB6ABB62E4
:102B280052E0FB6A5B00304AA2FB03235B08BB62EE
:102B38004AE0FFF7E3FDB86249E0FFF7DFFDB8625E
:102B480045E0264B1B6AFB61FB6903F44073B3F550
:102B5800807F08D1FB6903F00203002B03D04FF4F8
:102B68000043BB621FE0FB6903F44073B3F5007FC9
:102B780009D11A4B5B6A03F00203002B03D049F614
:102B88004043BB620FE0FB6903F44073B3F5407F39
:102B98001CD1124B1B6803F40033002B16D04FF2E4
:102BA8002443BB6212E011E0FFF724FE02460B4B00
:102BB8005B689B0B03F0030301335B00B2FBF3F389
:102BC800BB6204E000BF02E000BF00E000BFBB6AD8
:102BD80018463437BD4690BD54A90008001002407D
:102BE80000127A0000093D00ABAAAAAA80B584B0F9
:102BF80000AF78600023FB607B68002B01D10123C4
:102C080084E07B685B7CDBB2002B05D17B6800220B
:102C18001A747868FEF718FC7B6802225A74786880
:102C280000F0C8F90346002B04D07B6804225A74CC
:102C380001236BE0786800F081FA0346002B04D08A
:102C48007B6804225A74012360E07B681B685A6819
:102C58007B681B6822F007025A607B689B68002B20
:102C680005D02C4B1B6B2B4A23F001031363294B14
:102C7800DB6A23F460727B689B6826491343CB6246
:102C88007B685B68B3F1FF3F03D07B685B68FB60E0
:102C98000EE00120FFF7C6FEF860FB68002B04D1A8
:102CA8007B6804225A74012330E0FB68013BFB6017
:102CB8007B681B689B6823F00F01FB681A0C7B6814
:102CC8001B680A439A607B681B68DB681B0C1B0443
:102CD800FA6891B27A6812680B43D360786800F09A
:102CE80055FA0346002B04D07B6804225A7401234A
:102CF8000CE07B680022DA737B6801225A737B68D8
:102D080001229A737B6801225A74002318461037EF
:102D1800BD4680BD006C004090B587B000AFF8603C
:102D2800B9607A6000237B6100233B61FB68002B5C
:102D380002D0BB68002B01D1012380E0FB681B7C1B
:102D4800012B01D102237AE0FB6801221A74FB6887
:102D580002225A747B68002B13D1BB681B781A4671
:102D68004FF4616303FB02F2BB685B7819460B46BC
:102D78001B015B1A9B001344BA68927813447B6169
:102D88001EE0BB681B78184600F028FA03461A466E
:102D98004FF4616303FB02F4BB685B78184600F0EC
:102DA8001DFA03461A4613461B019B1A9B001C4436
:102DB800BB689B78184600F011FA034623447B61F0
:102DC8007969F86800F053F90346002B07D0FB68CF
:102DD80004225A74FB6800221A7401232FE0FB684E
:102DE8001B685A68FB681B6822F005025A60F8687D
:102DF80000F064F938613B69B3F1FF3F18D03A69D4
:102E08007B699A4214D23B6903F5A83303F5C07372
:102E18003B613969F86800F06AF90346002B07D06E
:102E2800FB6804225A74FB6800221A74012306E026
:102E3800FB6801225A74FB6800221A7400231846A2
:102E48001C37BD4690BD000080B588B000AFF86063
:102E5800B9607A600023FB610023BB6100237B61BA
:102E6800FB68002B02D0BB68002B01D1012397E03F
:102E7800FB681B7C012B01D1022391E0FB68012236
:102E88001A74FB6802225A747B68002B0CD1BB6849
:102E9800DA78FB68DA73BB685A78FB685A73BB68E0
:102EA8009A78FB689A731AE0BB68DB78184600F0DA
:102EB80095F903461A46FB68DA73BB685B781846CF
:102EC80000F08CF903461A46FB685A73BB689B7876
:102ED800184600F083F903461A46FB689A73FB68A4
:102EE800DB7B1846FB68597BFB689B7B1A4600F026
:102EF80093F903461A46FB681A73FB681A7BBB688A
:102F08001A70F86800F083F8F861FB69264AA2FB9A
:102F18000323DB0A7B617B69182B3AD97B69234A37
:102F2800A2FB03231B09224A02FB03F3FA69D31A03
:102F3800FB61F969F86800F09AF80346002B07D09E
:102F4800FB6804225A74FB6800221A74012327E0E4
:102F5800F86800F0B3F8B861BB69B3F1FF3F18D067
:102F6800BA69FB699A4214D2BB6903F5A83303F521
:102F7800C073BB61B969F86800F0B9F80346002B63
:102F880007D0FB6804225A74FB6800221A740123D4
:102F980006E0FB6801225A74FB6800221A740023B9
:102FA80018462037BD4680BDC5B3A291ABAAAAAAD0
:102FB8008051010080B584B000AF78600023FB60C9
:102FC8007B68002B01D101231DE07B681B685A68D0
:102FD8007B681B6822F008025A60FEF73BFDF86028
:102FE80009E0FEF737FD0246FB68D31AB3F57A7F8E
:102FF80001D9032307E07B681B685B6803F00803BB
:10300800002BEED0002318461037BD4680BD80B493
:1030180087B000AF786000237B8200233B820023C7
:10302800FB8100237B617B681B689B697B827B68D3
:103038001B68DB69FB817B681B689B693B827A8A1A
:103048003B8A9A4208D03B8A1A047B681B68DB6972
:103058009BB213437B6104E07B8A1A04FB89134308
:103068007B617B6918461C37BD4680BC704780B5BC
:1030780084B000AF786039600023FB73786800F093
:103088005DF80346002B02D00123FB7311E07B6837
:103098001B683A68120C9A617B681B683A6892B29E
:1030A800DA61786800F072F80346002B01D001233A
:1030B800FB73FB7B18461037BD4680BD80B485B0D6
:1030C80000AF78600023FB810023BB817B681B680D
:1030D8001B6AFB817B681B685B6ABB81FB891A04DE
:1030E800BB89134318461437BD4680BC704780B56A
:1030F80084B000AF786039600023FB73786800F013
:103108001DF80346002B02D00123FB7311E07B68F6
:103118001B683A68120C1A627B681B683A6892B29C
:103128005A62786800F032F80346002B01D0012378
:10313800FB73FB7B18461037BD4680BD80B584B055
:1031480000AF78600023FB60FEF784FCF86009E0BC
:10315800FEF780FC0246FB68D31AB3F57A7F01D9E3
:1031680003230FE07B681B685B6803F02003002BD8
:10317800EED07B681B685A687B681B6842F01002B7
:103188005A60002318461037BD4680BD80B584B00C
:1031980000AF78600023FB607B681B685A687B6817
:1031A8001B6822F010025A60FEF754FCF86009E030
:1031B800FEF750FC0246FB68D31AB3F57A7F01D9B3
:1031C800032307E07B681B685B6803F02003002B80
:1031D800EED0002318461037BD4680BD80B485B0B8
:1031E80000AF0346FB710023FB60FB791B09DBB2D0
:1031F8001A4613469B0013445B00FB60FB7903F0FF
:103208000F03DAB2FB68DBB21344DBB2184614379B
:10321800BD4680BC7047000080B485B000AF7860C0
:103228000B46FB701346BB700023BB600023FB609A
:103238007B6803F5FA63BB60FB78022B2DD8FA781C
:1032480013465B001344DB009B1A2C4AA2FB0323A2
:103258005A08BB781A44BB681A44BB68013B9B08F0
:103268001A44BB68013B2649A1FB03135B09D21A28
:10327800BB68013B2249A1FB0313DB0913441A1D58
:10328800204BA3FB0213D11A49080B4499080B469B
:10329800DB005B1AD31AFB6029E0FA7813465B005F
:1032A8001344DB009B1A154AA2FB03235A08BB7878
:1032B8001A44BB681A44BB689B081A44BB68104987
:1032C800A1FB03135B09D21ABB680D49A1FB0313C9
:1032D800DB0913449A1C0B4BA3FB0213D11A4908B0
:1032E8000B4499080B46DB005B1AD31AFB60FB689A
:1032F800DBB218461437BD4680BC7047398EE338B8
:103308001F85EB512549922480B582B000AF7860C3
:103318007B68002B01D1012322E07B6893F83430CD
:10332800DBB2002B05D17B6800221A777868FEF79C
:10333800AFF87B68032283F83420786800F014F82B
:103348000346002B01D001230AE07B6800229A6320
:103358007B6800221A637B68012283F834200023EB
:1033680018460837BD4680BDB0B58EB004AF78604A
:103378000023BB600023FB6000233B6100237B61CB
:103388000023BB617623FB617B681D686C4607F1EF
:10339800140393E8070084E8070007F108030ECB3D
:1033A800284601F053FF034687F8273097F827305F
:1033B800002B01D001234CE0284B00221A607B68C7
:1033C8001B68184601F088FF244B01221A607868B0
:1033D80000F06AFE38623B6A002B0BD07B68012242
:1033E80083F834207B689A6B3B6A1A437B689A633C
:1033F80001232EE0786800F088FD38623B6A002BD4
:103408000BD07B68012283F834207B689A6B3B6A77
:103418001A437B689A6301231BE07B681B684FF49F
:103428000071184601F0E6FF38623B6A002B0FD0A6
:103438007B681B680A4A9A637B689A6B3B6A1A43E3
:103448007B689A637B68012283F83420012300E0BB
:10345800002318462837BD46B0BD00BFA000304243
:10346800FF05400080B592B000AFF860B9607A609F
:103478003B60FEF7EFFA38637B68BB63BB687B632E
:10348800BB68002B07D1FB689B6B43F00062FB68AD
:103498009A630123BDE1FB6893F83430DBB2012B5A
:1034A80040F0B081FB6800229A63BA6B3B681A440B
:1034B800FB68DB6D9A4207D9FB689B6B43F000728F
:1034C800FB689A630123A4E1FB68032283F8342094
:1034D800FB681B680022DA62FB685B6C012B02D078
:1034E800BB6B5B02BB634FF0FF337B613B685B02E6
:1034F800BB619023FB6102233B6200237B620123B3
:10350800BB62FB681B6807F114021146184601F0FC
:1035180046FF3B68012B0AD9FB6802221A63FB6845
:103528001B68B96B184601F0A9FF786409E0FB68CD
:1035380001221A63FB681B68B96B184601F07CFF0F
:1035480078647B6C002B12D0FB681B687A4A9A63FC
:10355800FB689A6B7B6C1A43FB689A63FB680122D1
:1035680083F83420FB6800221A63012351E1BB6908
:10357800FB6361E0FB681B685B6B03F40043002B93
:103588003CD0FB6B002B39D000233B6433E0FB6855
:103598001B68184601F084FEF862FB6ADAB27B6B9E
:1035A8001A707B6B01337B63FB6B013BFB63FB6A2C
:1035B8001B0ADAB27B6B1A707B6B01337B63FB6B84
:1035C800013BFB63FB6A1B0CDAB27B6B1A707B6BEB
:1035D80001337B63FB6B013BFB63FB6A1B0EDAB2B7
:1035E8007B6B1A707B6B01337B63FB6B013BFB636B
:1035F8003B6C01333B643B6C072BC8D9FEF72AFAB6
:1036080002463B6BD31A3A6D9A4202D93B6D002BA6
:1036180012D1FB681B68484A9A63FB689B6B43F0AE
:103628000042FB689A63FB68012283F83420FB6838
:1036380000221A630323ECE0FB681B685A6B40F214
:103648002A331340002B95D0FB681B685B6B03F48F
:103658008073002B22D03B68012B1FD9FB685B6C61
:10366800032B1BD0FB681B68184601F06DFF7864BC
:103678007B6C002B12D0FB681B682F4A9A63FB688F
:103688009A6B7B6C1A43FB689A63FB68012283F888
:103698003420FB6800221A630123BAE0FB681B6828
:1036A8005B6B03F00803002B12D0FB681B68224AEF
:1036B8009A63FB689B6B43F00802FB689A63FB689C
:1036C800012283F83420FB6800221A630123A0E05A
:1036D800FB681B685B6B03F00203002B12D0FB68CE
:1036E8001B68154A9A63FB689B6B43F00202FB68F0
:1036F8009A63FB68012283F83420FB6800221A636E
:10370800012386E0FB681B685B6B03F02003002B3A
:1037180063D0FB681B68084A9A63FB689B6B43F09D
:103728002002FB689A63FB68012283F83420FB6857
:1037380000221A6301236CE0FF054000FB681B6848
:10374800184601F0ADFDF862FB6ADAB27B6B1A70BD
:103758007B6B01337B63FB6B013BFB63FB6A1B0ADF
:10376800DAB27B6B1A707B6B01337B63FB6B013BBB
:10377800FB63FB6A1B0CDAB27B6B1A707B6B013341
:103788007B63FB6B013BFB63FB6A1B0EDAB27B6B53
:103798001A707B6B01337B63FB6B013BFB63FEF7AA
:1037A80059F902463B6BD31A3A6D9A4202D93B6DDE
:1037B800002B12D1FB681B68184A9A63FB689B6B45
:1037C80043F00042FB689A63FB68012283F83420C7
:1037D800FB6800221A6301231BE0FB681B685B6B14
:1037E80003F40013002B02D0FB6B002BA6D1FB685F
:1037F8001B6840F23A529A63FB68012283F834202E
:10380800002306E0FB689B6B43F00052FB689A6359
:10381800012318464837BD4680BD00BFFF0540005C
:1038280080B592B000AFF860B9607A603B60FEF78F
:1038380011F938637B68BB63BB687B63BB68002B8B
:1038480007D1FB689B6B43F00062FB689A63012316
:1038580066E1FB6893F83430DBB2012B40F0598104
:10386800FB6800229A63BA6B3B681A44FB68DB6DFD
:103878009A4207D9FB689B6B43F00072FB689A6316
:1038880001234DE1FB68032283F83420FB681B68A1
:103898000022DA62FB685B6C012B02D0BB6B5B0217
:1038A800BB634FF0FF33BB613B685B02FB61902356
:1038B8003B6200237B620023BB620123FB62FB683F
:1038C8001B6807F118021146184601F068FD3B68AD
:1038D800012B0AD9FB6820221A63FB681B68B96BA5
:1038E800184601F00FFE786409E0FB6810221A639D
:1038F800FB681B68B96B184601F0E2FD78647B6CC5
:10390800002B12D0FB681B68874A9A63FB689A6B86
:103918007B6C1A43FB689A63FB68012283F83420A6
:10392800FB6800221A630123FAE0FB69FB6365E088
:10393800FB681B685B6B03F48043002B40D0FB6B78
:10394800002B3DD000233B6437E07B6B1B787B6109
:103958007B6B01337B63FB6B013BFB637B6B1B78EE
:103968001A027B6913437B617B6B01337B63FB6BBF
:10397800013BFB637B6B1B781A047B6913437B61F8
:103988007B6B01337B63FB6B013BFB637B6B1B78BE
:103998001A067B6913437B617B6B01337B63FB6B8B
:1039A800013BFB63FB681B6807F1140211461846CC
:1039B80001F082FC3B6C01333B643B6C072BC4D9A0
:1039C800FEF748F802463B6BD31A3A6D9A4202D981
:1039D8003B6D002B12D1FB681B68534A9A63FB6846
:1039E8009A6B7B6C1A43FB689A63FB68012283F825
:1039F8003420FB6800221A63032391E0FB681B68EC
:103A08005A6B40F21A331340002B91D0FB681B68A5
:103A18005B6B03F48073002B22D03B68012B1FD90A
:103A2800FB685B6C032B1BD0FB681B68184601F016
:103A38008BFD78647B6C002B12D0FB681B683A4ABC
:103A48009A63FB689A6B7B6C1A43FB689A63FB6802
:103A5800012283F83420FB6800221A6301235FE007
:103A6800FB681B685B6B03F00803002B12D0FB6834
:103A78001B682D4A9A63FB689B6B43F00802FB683E
:103A88009A63FB68012283F83420FB6800221A63DA
:103A9800012345E0FB681B685B6B03F00203002B06
:103AA80012D0FB681B68204A9A63FB689B6B43F043
:103AB8000202FB689A63FB68012283F83420FB68E2
:103AC80000221A6301232BE0FB681B685B6B03F081
:103AD8001003002B12D0FB681B68134A9A63FB681B
:103AE8009B6B43F01002FB689A63FB68012283F822
:103AF8003420FB6800221A63012311E0FB681B686D
:103B080040F23A529A63FB68012283F8342000237A
:103B180006E0FB689B6B43F00052FB689A63012345
:103B280018464837BD4680BDFF05400080B483B0C5
:103B380000AF786039607B685B6E9B0FDAB23B68D8
:103B48001A707B685B6E9B0EDBB203F00F03DAB270
:103B58003B685A707B685B6E1B0EDBB203F0030395
:103B6800DAB23B689A707B685B6E1B0CDAB23B6812
:103B7800DA707B685B6E1B0ADAB23B681A717B6885
:103B88005B6EDAB23B685A717B689B6E1B0D9AB20A
:103B98003B68DA807B689B6E1B0CDBB203F00F037B
:103BA800DAB23B681A727B689B6EDB0BDBB203F000
:103BB8000103DAB23B685A727B689B6E9B0BDBB2DF
:103BC80003F00103DAB23B689A727B689B6E5B0B69
:103BD800DBB203F00103DAB23B68DA727B689B6EF2
:103BE8001B0BDBB203F00103DAB23B681A733B68C4
:103BF80000225A737B685B6C002B63D17B689B6ED9
:103C08009A0040F6FC7313407A68D26E920F1A43FA
:103C18003B681A617B68DB6EDB0EDBB203F00703DF
:103C2800DAB23B681A757B68DB6E1B0EDBB203F0F9
:103C38000703DAB23B685A757B68DB6E5B0DDBB253
:103C480003F00703DAB23B689A757B68DB6E9B0C5E
:103C5800DBB203F00703DAB23B68DA757B68DB6E28
:103C6800DB0BDBB203F00703DAB23B681A763B687A
:103C78001B695A1C7B685A653B681B7EDBB203F0E4
:103C880007030233012202FA03F37A68526D03FB39
:103C980002F27B685A653B681B7ADBB203F00F03BC
:103CA80001229A407B689A657B685B6D7A68926DA1
:103CB800520A03FB02F27B68DA657B684FF40072F4
:103CC8001A6631E07B685B6C012B1DD17B689B6EAB
:103CD8001B0403F47C127B68DB6E1B0C1A433B68E5
:103CE8001A613B681B6901339A027B685A657B68D5
:103CF8005A6D7B68DA657B684FF400729A657B6859
:103D08009A6D7B681A660FE07B681B68584A9A634D
:103D18007B689B6B43F080527B689A637B680122C7
:103D280083F8342001239DE07B68DB6E9B0BDBB2BC
:103D380003F00103DAB23B685A767B68DB6EDB0975
:103D4800DBB203F07F03DAB23B689A767B68DB6EFE
:103D5800DBB203F07F03DAB23B68DA767B681B6F6D
:103D6800DB0FDAB23B681A777B681B6F5B0FDBB23D
:103D780003F00303DAB23B685A777B681B6F9B0E2C
:103D8800DBB203F00703DAB23B689A777B681B6FF4
:103D98009B0DDBB203F00F03DAB23B68DA777B687E
:103DA8001B6F5B0DDBB203F00103DAB23B6883F8EB
:103DB80020203B68002283F821207B681B6F1B0CA6
:103DC800DBB203F00103DAB23B6883F822207B6898
:103DD8001B6FDB0BDBB203F00103DAB23B6883F83D
:103DE80023207B681B6F9B0BDBB203F00103DAB265
:103DF8003B6883F824207B681B6F5B0BDBB203F006
:103E08000103DAB23B6883F825207B681B6F1B0B24
:103E1800DBB203F00103DAB23B6883F826207B6843
:103E28001B6F9B0ADBB203F00303DAB23B6883F82B
:103E380027207B681B6F1B0ADBB203F00303DAB28F
:103E48003B6883F828207B681B6F5B08DBB203F0B4
:103E58007F03DAB23B6883F829203B68012283F8A4
:103E68002A20002318460C37BD4680BC704700BF87
:103E7800FF05400080B483B000AF786039607B688C
:103E88005A6C3B681A607B689A6C3B685A607B681E
:103E9800DA6C3B689A607B681A6D3B68DA607B680D
:103EA8005A6D3B681A617B689A6D3B685A617B68FA
:103EB800DA6D3B689A617B681A6E3B68DA610023A9
:103EC80018460C37BD4680BC704780B586B000AF39
:103ED80078600023FB6007F10C031946786800F04E
:103EE80071F978617B69002B05D07B689A6B7B69D7
:103EF8001A437B689A63FB685B0A03F00F033B6114
:103F08003B6918461837BD4680BDB0B594B004AFBC
:103F180078600123FB817B681B68184601F0EBF988
:103F28000346002B02D14FF08063B8E07B685B6CDE
:103F3800032B2FD07B681B68184601F0CCFBF86375
:103F4800FB6B002B01D0FB6BA9E07B681B68002191
:103F5800184601F012FA02467B685A677B681B68AC
:103F68000421184601F009FA02467B689A677B68C3
:103F78001B680821184601F000FA02467B68DA67D8
:103F88007B681B680C21184601F0F7F902467B682C
:103F9800C3F880207B685B6C032B0DD07B681B68A3
:103FA80007F10E021146184601F0D2FBF863FB6BCD
:103FB800002B01D0FB6B72E07B685B6C032B36D067
:103FC800FB891A467B681A657B681A687B681B6DD3
:103FD8001B041946104601F09CFBF863FB6B002B91
:103FE80001D0FB6B5BE07B681B680021184601F081
:103FF800C4F902467B685A667B681B680421184628
:1040080001F0BBF902467B689A667B681B68082149
:10401800184601F0B2F902467B68DA667B681B68CD
:104028000C21184601F0A9F902467B681A677B68DB
:104038001B680421184601F0A0F903461A0D7B6895
:10404800DA6407F1100319467868FFF76FFD034635
:10405800002B02D04FF0805321E07B6819687B6801
:104068001B6D1B0400221C46154622462B4608469B
:1040780001F08CFAF863FB6B002B01D0FB6B0EE0B0
:104088007B681D687B686C4603F1100207CA84E8E8
:10409800070004330ECB284601F0D8F80023184651
:1040A8004037BD46B0BD000080B586B000AF78602F
:1040B8000023BB6000237B6100233B617B681B6896
:1040C800184601F086FAF860FB68002B01D0FB68FF
:1040D80072E07B681B68184601F099FAF860FB6883
:1040E800002B0DD07B6800229A647B681B681846F9
:1040F80001F06FFAF860FB68002B04D0FB685BE006
:104108007B6801229A647B689B6C012B37D17B68A2
:104118001B680021184601F099FAF860FB68002B2B
:104128002DD04FF0805347E07B681B68002118466C
:1041380001F08CFAF860FB68002B01D0FB683BE0CB
:104148007B681B681E49184601F0A2FAF860FB68F4
:10415800002B02D04FF080532EE07B681B680021B3
:10416800184601F00AF978617B69DB0F012B01D150
:10417800012300E000233B61BB680133BB60BB68DF
:104188004FF6FE72934202D83B69002BCCD0BB6835
:104198004FF6FE72934202D94FF080730CE07B69B0
:1041A80003F08043002B03D07B6801225A6402E0AD
:1041B8007B6800225A64002318461837BD4680BD24
:1041C800000010C180B584B000AF786039603B68EA
:1041D800002B02D14FF0006318E07B681A687B68F7
:1041E8001B6D1B041946104601F0D3FAF860FB68F2
:1041F800002B01D0FB6809E07B681B68002118468A
:1042080001F0BBF802463B681A60002318461037D5
:10421800BD4680BD80B582B000AF78607B68002B5A
:1042280001D1012341E07B6893F83D30DBB2002BDC
:1042380006D17B68002283F83C207868FDF782F974
:104248007B68022283F83D207B681A687B68043308
:104258001946104600F094FB7B68012283F846203B
:104268007B68012283F83E207B68012283F83F2087
:104278007B68012283F840207B68012283F8412073
:104288007B68012283F842207B68012283F843205F
:104298007B68012283F844207B68012283F845204B
:1042A8007B68012283F83D20002318460837BD4665
:1042B80080BD000080B485B000AF78607B6893F85B
:1042C8003D30DBB2012B01D0012344E07B680222A0
:1042D80083F83D207B681B68DA687B681B6842F0BE
:1042E8000102DA607B681B681D4A934218D07B681C
:1042F8001B681C4A934213D07B681B68B3F1804F3C
:104308000ED07B681B68184A934209D07B681B68EB
:10431800164A934204D07B681B68154A934211D110
:104328007B681B689B6803F00703FB60FB68062B30
:1043380010D07B681B681A687B681B6842F0010212
:104348001A6007E07B681B681A687B681B6842F084
:1043580001021A60002318461437BD4680BC704716
:10436800002C0140003401400004004000080040D7
:10437800000C004080B582B000AF78607B68002BED
:1043880001D1012341E07B6893F83D30DBB2002B7B
:1043980006D17B68002283F83C20786800F039F861
:1043A8007B68022283F83D207B681A687B680433A7
:1043B8001946104600F0E4FA7B68012283F846208B
:1043C8007B68012283F83E207B68012283F83F2026
:1043D8007B68012283F840207B68012283F8412012
:1043E8007B68012283F842207B68012283F84320FE
:1043F8007B68012283F844207B68012283F84520EA
:104408007B68012283F83D20002318460837BD4603
:1044180080BD80B483B000AF786000BF0C37BD4664
:1044280080BC704780B582B000AF78607B681B683D
:104438001B6903F00203022B22D17B681B68DB682F
:1044480003F00203022B1BD17B681B686FF002028A
:104458001A617B6801221A777B681B689B6903F0E5
:104468000303002B03D0786800F06FFA05E0786842
:1044780000F062FA786800F071FA7B6800221A7717
:104488007B681B681B6903F00403042B22D17B683B
:104498001B68DB6803F00403042B1BD17B681B68D3
:1044A8006FF004021A617B6802221A777B681B6826
:1044B8009B6903F44073002B03D0786800F045FA39
:1044C80005E0786800F038FA786800F047FA7B6809
:1044D80000221A777B681B681B6903F00803082B06
:1044E80022D17B681B68DB6803F00803082B1BD10B
:1044F8007B681B686FF008021A617B6804221A77D0
:104508007B681B68DB6903F00303002B03D0786822
:1045180000F01BFA05E0786800F00EFA786800F001
:104528001DFA7B6800221A777B681B681B6903F0F9
:104538001003102B22D17B681B68DB6803F0100383
:10454800102B1BD17B681B686FF010021A617B6807
:1045580008221A777B681B68DB6903F44073002B19
:1045680003D0786800F0F1F905E0786800F0E4F924
:10457800786800F0F3F97B6800221A777B681B687B
:104588001B6903F00103012B0ED17B681B68DB68F4
:1045980003F00103012B07D17B681B686FF0010250
:1045A8001A617868FCF716FF7B681B681B6903F0C3
:1045B8008003802B0ED17B681B68DB6803F08003C7
:1045C800802B07D17B681B686FF080021A617868BE
:1045D80000F058FD7B681B681B6903F04003402B03
:1045E8000ED17B681B68DB6803F04003402B07D1C2
:1045F8007B681B686FF040021A61786800F0B7F9B1
:104608007B681B681B6903F02003202B0ED17B6895
:104618001B68DB6803F02003202B07D17B681B682D
:104628006FF020021A61786800F023FD00BF083798
:10463800BD4680BD80B584B000AFF860B9607A60CF
:10464800FB6893F83C30012B01D10223ACE0FB68F6
:10465800012283F83C207B680C2B00F29F8001A28A
:1046680052F823F0A1460008A5470008A54700080E
:10467800A5470008E1460008A5470008A547000827
:10468800A547000823470008A5470008A5470008D4
:10469800A547000863470008FB681B68B968184607
:1046A80000F0E8F9FB681B689A69FB681B6842F030
:1046B80008029A61FB681B689A69FB681B6822F00C
:1046C80004029A61FB681B689969BB681A69FB68F0
:1046D8001B680A439A6162E0FB681B68B968184660
:1046E80000F038FAFB681B689A69FB681B6842F49B
:1046F80000629A61FB681B689A69FB681B6822F470
:1047080080629A61FB681B689969BB681B691A0219
:10471800FB681B680A439A6141E0FB681B68B9683B
:10472800184600F08BFAFB681B68DA69FB681B689F
:1047380042F00802DA61FB681B68DA69FB681B68EB
:1047480022F00402DA61FB681B68D969BB681A6940
:10475800FB681B680A43DA6121E0FB681B68B968DB
:10476800184600F0DFFAFB681B68DA69FB681B680B
:1047780042F40062DA61FB681B68DA69FB681B684F
:1047880022F48062DA61FB681B68D969BB681B691F
:104798001A02FB681B680A43DA6100E000BFFB6885
:1047A800002283F83C20002318461037BD4680BD00
:1047B80080B584B000AF786039607B6893F83C308E
:1047C800012B01D10223B3E07B68012283F83C204E
:1047D8007B68022283F83D207B681B689B68FB602E
:1047E800FB6823F07703FB60FB6823F47F43FB60DF
:1047F8007B681B68FA689A603B681B68B3F5005FC2
:104808003ED0B3F5005F00F28780B3F5805F00F01B
:104818008580B3F5805F7FD8702B1AD0702B7BD83A
:10482800602B50D0602B77D8502B3CD0502B73D8AE
:10483800402B58D0402B6FD8302B64D0302B6BD8FE
:10484800202B60D0202B67D8002B5CD0102B5AD09F
:1048580062E07B6818683B6899683B685A683B68FF
:10486800DB6800F02AFB7B681B689B68FB60FB68C1
:1048780043F07703FB607B681B68FA689A604EE038
:104888007B6818683B6899683B685A683B68DB68CE
:1048980000F013FB7B681B689A687B681B6842F40E
:1048A80080429A603BE07B6818683B6859683B68BF
:1048B800DB681A4600F08AFA7B681B6850211846A4
:1048C80000F0E1FA2BE07B6818683B6859683B68A0
:1048D800DB681A4600F0A8FA7B681B686021184656
:1048E80000F0D1FA1BE07B6818683B6859683B68A0
:1048F800DB681A4600F06AFA7B681B684021184694
:1049080000F0C1FA0BE07B681A683B681B6819461F
:10491800104600F0B8FA02E000BF00E000BF7B6874
:10492800012283F83D207B68002283F83C20002385
:1049380018461037BD4680BD80B483B000AF78609C
:1049480000BF0C37BD4680BC704780B483B000AF51
:10495800786000BF0C37BD4680BC704780B483B018
:1049680000AF786000BF0C37BD4680BC704780B48C
:1049780083B000AF786000BF0C37BD4680BC70477D
:1049880080B485B000AF786039607B681B68FB60D5
:104998007B68334A934213D07B68324A93420FD0E4
:1049A8007B68B3F1804F0BD07B682F4A934207D0C6
:1049B8007B682E4A934203D07B682D4A934208D1E4
:1049C800FB6823F07003FB603B685B68FA6813437D
:1049D800FB607B68224A934213D07B68214A93424A
:1049E8000FD07B68B3F1804F0BD07B681E4A93428F
:1049F80007D07B681D4A934203D07B681C4A9342C8
:104A080008D1FB6823F44073FB603B68DB68FA68F5
:104A18001343FB60FB6823F080023B685B69134328
:104A2800FB607B68FA681A603B689A687B68DA62A0
:104A38003B681A687B689A627B68094A934203D08C
:104A48007B68084A934203D13B681A697B681A63FA
:104A58007B6801225A6100BF1437BD4680BC70478D
:104A6800002C0140003401400004004000080040D0
:104A7800000C004080B487B000AF786039607B6874
:104A88001B6A23F001027B681A627B681B6A7B61E0
:104A98007B685B683B617B689B69FB60FB6823F014
:104AA8007003FB60FB6823F00303FB603B681B6833
:104AB800FA681343FB607B6923F002037B613B6860
:104AC8009B687A6913437B617B68204A934203D0D1
:104AD8007B681F4A93420CD17B6923F008037B61F2
:104AE8003B68DB687A6913437B617B6923F00403C5
:104AF8007B617B68154A934203D07B68144A9342D2
:104B080011D13B6923F480733B613B6923F4007343
:104B18003B613B685B693A6913433B613B689B694E
:104B28003A6913433B617B683A695A607B68FA6863
:104B38009A613B685A687B685A637B687A691A622B
:104B480000BF1C37BD4680BC704700BF002C014029
:104B58000034014080B487B000AF786039607B686A
:104B68001B6A23F010027B681A627B681B6A7B61F0
:104B78007B685B683B617B689B69FB60FB6823F42F
:104B8800E043FB60FB6823F44073FB603B681B68F1
:104B98001B02FA681343FB607B6923F020037B61E7
:104BA8003B689B681B017A6913437B617B68214AD8
:104BB800934203D07B68204A93420DD17B6923F04E
:104BC80080037B613B68DB681B017A6913437B6167
:104BD8007B6923F040037B617B68164A934203D0CC
:104BE8007B68154A934213D13B6923F480633B6188
:104BF8003B6923F400633B613B685B699B003A694E
:104C080013433B613B689B699B003A6913433B61D3
:104C18007B683A695A607B68FA689A613B685A68A7
:104C28007B689A637B687A691A6200BF1C37BD4645
:104C380080BC7047002C01400034014080B487B02C
:104C480000AF786039607B681B6A23F480727B68E8
:104C58001A627B681B6A7B617B685B683B617B6867
:104C6800DB69FB60FB6823F07003FB60FB6823F0E3
:104C78000303FB603B681B68FA681343FB607B69AE
:104C880023F400737B613B689B681B027A691343BA
:104C98007B617B68214A934203D07B68204A934218
:104CA8000DD17B6923F400637B613B68DB681B02E1
:104CB8007A6913437B617B6923F480637B617B683A
:104CC800164A934203D07B68154A934213D13B6935
:104CD80023F480533B613B6923F400533B613B68F9
:104CE8005B691B013A6913433B613B689B691B0184
:104CF8003A6913433B617B683A695A607B68FA6892
:104D0800DA613B685A687B68DA637B687A691A6299
:104D180000BF1C37BD4680BC704700BF002C014057
:104D28000034014080B487B000AF786039607B6898
:104D38001B6A23F480527B681A627B681B6A3B619A
:104D48007B685B687B617B68DB69FB60FB6823F4DD
:104D5800E043FB60FB6823F44073FB603B681B681F
:104D68001B02FA681343FB603B6923F400533B6161
:104D78003B689B681B033A6913433B617B68114A94
:104D8800934203D07B68104A934209D17B6923F48C
:104D980080437B613B685B699B017A6913437B6154
:104DA8007B687A695A607B68FA68DA613B685A6896
:104DB8007B681A647B683A691A6200BF1C37BD4673
:104DC80080BC7047002C01400034014080B487B09B
:104DD80000AFF860B9607A60FB681B6A7B61FB68AA
:104DE8001B6A23F00102FB681A62FB689B693B613E
:104DF8003B6923F0F0033B617B681B013A6913436D
:104E08003B617B6923F00A037B617A69BB681343C2
:104E18007B61FB683A699A61FB687A691A6200BF2C
:104E28001C37BD4680BC704780B487B000AFF860BF
:104E3800B9607A60FB681B6A23F01002FB681A628B
:104E4800FB689B697B61FB681B6A3B617B6923F498
:104E580070437B617B681B037A6913437B613B6901
:104E680023F0A0033B61BB681B013A6913433B6114
:104E7800FB687A699A61FB683A691A6200BF1C3755
:104E8800BD4680BC704780B485B000AF786039609B
:104E98007B689B68FB60FB6823F07003FB603A68E3
:104EA800FB68134343F00703FB607B68FA689A606A
:104EB80000BF1437BD4680BC704780B487B000AFD0
:104EC800F860B9607A603B60FB689B687B617B69CE
:104ED80023F47F437B613B681A027B681A43BB68F3
:104EE80013437A6913437B61FB687A699A6000BF50
:104EF8001C37BD4680BC704780B485B000AF786071
:104F080039607B6893F83C30012B01D1022350E0D3
:104F18007B68012283F83C207B68022283F83D20CD
:104F28007B681B685B68FB607B681B689B68BB6071
:104F3800FB6823F07003FB603B681B68FA68134347
:104F4800FB607B681B68FA685A607B681B681B4AB1
:104F5800934218D07B681B68194A934213D07B6828
:104F68001B68B3F1804F0ED07B681B68154A9342CB
:104F780009D07B681B68144A934204D07B681B687D
:104F8800124A93420CD1BB6823F08003BB603B6894
:104F98005B68BA681343BB607B681B68BA689A6031
:104FA8007B68012283F83D207B68002283F83C203F
:104FB800002318461437BD4680BC7047002C0140BA
:104FC800003401400004004000080040000C00408C
:104FD80080B485B000AF786039600023FB607B68DF
:104FE80093F83C30012B01D102233DE07B6801227C
:104FF80083F83C20FB6823F0FF023B68DB6813431F
:10500800FB60FB6823F440723B689B681343FB60BA
:10501800FB6823F480623B685B681343FB60FB68B2
:1050280023F400623B681B681343FB60FB6823F4AE
:1050380080523B681B691343FB60FB6823F40052F2
:105048003B685B691343FB60FB6823F480423B6861
:10505800DB691343FB607B681B68FA685A647B68EA
:10506800002283F83C20002318461437BD4680BC34
:10507800704780B483B000AF786000BF0C37BD467E
:1050880080BC704780B483B000AF786000BF0C3735
:10509800BD4680BC704780B582B000AF78607B6841
:1050A800002B01D101233FE07B6893F83D30DBB250
:1050B800002B06D17B68002283F83C207868FCF737
:1050C800A7FA7B68242283F83D207B681B68DA688E
:1050D8007B681B6822F40052DA60786800F028F8D0
:1050E8007B681B681A697B681B6822F490421A6106
:1050F8007B681B685A697B681B6822F02A025A6120
:105108007B681B68DA687B681B6842F40052DA60C7
:105118007B6800221A647B68202283F83D207B6824
:10512800202283F83E20002318460837BD4680BD5C
:1051380080B584B000AF78607B681B681B6923F476
:1051480040517B68DA687B681B680A431A617B6890
:105158009A687B681B691A437B685B691343BB6069
:105168007B681B68DB6823F4B05323F00C037A6870
:105178001268B9680B43D3607B681B685B6923F4CA
:1051880040717B689A697B681B680A435A617B682F
:105198001B682C4A934203D1FDF72CFBF86002E010
:1051A800FDF714FBF860FA6813469B0013449A0055
:1051B8001A447B685B689B00B2FBF3F3224AA2FBAC
:1051C80003235B091901FA6813469B0013449A00EC
:1051D8001A447B685B689B00B2FBF3F21A4BA3FB93
:1051E80002035B09642000FB03F3D31A1B0132336B
:1051F800154AA2FB03235B0903F0F0031944FA687C
:1052080013469B0013449A001A447B685B689B0012
:10521800B2FBF3F20C4BA3FB02035B09642000FB17
:1052280003F3D31A1B013233074AA2FB03235B099A
:1052380003F00F027B681B680A449A6000BF1037AE
:10524800BD4680BD003801401F85EB5184B080B455
:1052580085B000AF786007F11C0080E80E000023DD
:10526800FB60FA693B6A1A437B6A1A43BB6A1A43B2
:10527800FB6A1A433B6B1343FA681343FB607B6872
:105288005B6823F4FD4323F07F03FA681A437B68C5
:105298005A60002318461437BD4680BC04B07047D6
:1052A80080B483B000AF78607B68D3F8803018464C
:1052B8000C37BD4680BC704780B483B000AF7860BF
:1052C80039603B681A687B68C3F880200023184659
:1052D8000C37BD4680BC704780B582B000AF78609F
:1052E8007B6803221A600220FCF7BEFB00231846E5
:1052F8000837BD4680BD80B483B000AF78607B6856
:105308001B6803F0030318460C37BD4680BC704782
:1053180080B485B000AF786039600023FB603B68DB
:105328001A687B689A603B685A683B689B681A43AE
:105338003B68DB681A433B681B691343FA681343ED
:10534800FB607B68DB6823F47F6323F00F03FA6854
:105358001A437B68DA60002318461437BD4680BCC0
:10536800704780B483B000AF78607B681B69DBB29C
:1053780018460C37BD4680BC704780B485B000AF76
:10538800786039607B6814331A463B681344FB60C5
:10539800FB681B6818461437BD4680BC704780B44C
:1053A80085B000AF786039600023FB603B681A68FD
:1053B8007B685A623B685A687B689A623B689A685D
:1053C8003B68DB681A433B681B691A433B685B69A7
:1053D8001343FA681343FB607B68DB6A23F0F70228
:1053E800FB681A437B68DA62002318461437BD4607
:1053F80080BC704780B588B000AF786039603B6882
:10540800BB601023FB6040233B6100237B614FF4AA
:105418008063BB6107F1080319467868FFF778FFD6
:1054280041F288321021786800F000FAF861FB69CF
:1054380018462037BD4680BD80B588B000AF78607B
:1054480039603B68BB601123FB6040233B6100234C
:105458007B614FF48063BB6107F1080319467868E4
:10546800FFF756FF41F288321121786800F0DEF923
:10547800F861FB6918462037BD4680BD80B588B005
:1054880000AF786039603B68BB601223FB60402343
:105498003B6100237B614FF48063BB6107F1080324
:1054A80019467868FFF734FF41F28832122178688C
:1054B80000F0BCF9F861FB6918462037BD4680BD8D
:1054C80080B588B000AF786039603B68BB6018234E
:1054D800FB6040233B6100237B614FF48063BB6129
:1054E80007F1080319467868FFF712FF41F288327E
:1054F8001821786800F09AF9F861FB691846203796
:10550800BD4680BD80B588B000AF786039603B6823
:10551800BB601923FB6040233B6100237B614FF490
:105528008063BB6107F1080319467868FFF7F0FE4E
:1055380041F288321921786800F078F9F861FB693E
:1055480018462037BD4680BD80B588B000AF78606A
:105558000023BB600C23FB6040233B6100237B617D
:105568004FF48063BB6107F1080319467868FFF7B9
:10557800CFFE054A0C21786800F058F9F861FB69FC
:1055880018462037BD4680BD00E1F50580B58AB0D4
:1055980000AFF860C7E900233B683B6107237B61E4
:1055A8004023BB610023FB614FF480633B6207F13A
:1055B80010031946F868FFF7ABFE41F2883207215D
:1055C800F86800F033F978627B6A18462837BD46D8
:1055D80080BD80B588B000AF78600023BB60002331
:1055E800FB6000233B6100237B614FF48063BB6158
:1055F80007F1080319467868FFF78AFE786800F013
:10560800EBF8F861FB6918462037BD4680BD80B5C8
:1056180088B000AF78604FF4D573BB600823FB6097
:1056280040233B6100237B614FF48063BB6107F13A
:10563800080319467868FFF76BFE786800F0DEFA11
:10564800F861FB6918462037BD4680BD80B588B033
:1056580000AF786039603B68BB603723FB6040234C
:105668003B6100237B614FF48063BB6107F1080352
:1056780019467868FFF74CFE41F28832372178687E
:1056880000F0D4F8F861FB6918462037BD4680BDA4
:1056980080B588B000AF786039603B6843F000435C
:1056A80043F48013BB602923FB6040233B61002344
:1056B8007B614FF48063BB6107F108031946786882
:1056C800FFF726FE786800F0E7F9F861FB691846ED
:1056D8002037BD4680BD80B588B000AF7860002314
:1056E800BB600223FB60C0233B6100237B614FF456
:1056F8008063BB6107F1080319467868FFF708FE65
:10570800786800F081F9F861FB6918462037BD46D2
:1057180080BD80B588B000AF786039603B68BB60F9
:105728000923FB60C0233B6100237B614FF4806346
:10573800BB6107F1080319467868FFF7E9FD786847
:1057480000F062F9F861FB6918462037BD4680BD54
:1057580080B588B000AF786039600023BB60032350
:10576800FB6040233B6100237B614FF48063BB6196
:1057780007F1080319467868FFF7CAFD3A6803215C
:10578800786800F0C5F9F861FB6918462037BD460E
:1057980080BD80B588B000AF786039603B68BB6079
:1057A8000D23FB6040233B6100237B614FF4806342
:1057B800BB6107F1080319467868FFF7A9FD41F2B4
:1057C80088320D21786800F031F8F861FB691846D5
:1057D8002037BD4680BD000080B485B000AF78603A
:1057E800104B1B68104AA2FB03235B0A41F2883264
:1057F80002FB03F3FB60FB685A1EFA60002B02D120
:105808004FF0004309E07B685B6B03F08003002BDB
:10581800F1D07B68C5229A63002318461437BD4629
:1058280080BC704700000020D34D621080B588B05E
:1058380000AFF8600B467A60FB72704B1B68704AC9
:10584800A2FB03235A0A7B6802FB03F3FB61FB6993
:105858005A1EFA61002B02D14FF00043C9E0FB68E1
:105868005B6BBB61BB6903F04503002BEFD0BB69E1
:1058780003F40063002BEAD1FB685B6B03F00403BD
:10588800002B04D0FB6804229A630423B1E0FB6870
:105898005B6B03F00103002B04D0FB6801229A63C1
:1058A8000123A6E0FB68C5229A63F868FFF759FD53
:1058B80003461A46FB7A934201D0012399E000215E
:1058C800F868FFF75AFD78617A694E4B1340002B50
:1058D80001D100238DE07B69002B02DA4FF00073C1
:1058E80087E07B6903F08043002B01D0402380E0F0
:1058F8007B6903F00053002B01D0802379E07B699A
:1059080003F08053002B02D04FF4807371E07B6961
:1059180003F00063002B02D04FF4007369E07B6949
:1059280003F08063002B02D04FF4806361E07B6951
:1059380003F08073002B02D04FF4006359E07B69B9
:1059480003F40003002B02D04FF4805351E07B692D
:1059580003F48003002B02D04FF4005349E07B6925
:1059680003F40013002B02D04FF4804341E07B691D
:1059780003F48013002B02D04FF4004339E07B6915
:1059880003F48023002B02D04FF4003331E07B690D
:1059980003F40033002B02D04FF4802329E07B6905
:1059A80003F48033002B02D04FF4002321E07B69FD
:1059B80003F40043002B02D04FF4801319E07B69F5
:1059C80003F48043002B02D04FF4001311E07B69ED
:1059D80003F40053002B02D04FF4800309E07B69E5
:1059E80003F00803002B02D04FF4000301E04FF44A
:1059F800803318462037BD4680BD00BF0000002018
:105A0800D34D621008E0FFFD80B485B000AF786028
:105A18001F4B1B681F4AA2FB03235B0A41F2883213
:105A280002FB03F3FB60FB685A1EFA60002B02D1ED
:105A38004FF0004326E07B685B6BBB60BB6803F0FC
:105A48004503002BEFD0BB6803F40063002BEAD1B9
:105A58007B685B6B03F00403002B04D07B68042293
:105A68009A6304230EE07B685B6B03F00103002B51
:105A780004D07B6801229A63012303E07B68C52276
:105A88009A63002318461437BD4680BC704700BF90
:105A980000000020D34D621080B485B000AF78605C
:105AA800194B1B68194AA2FB03235B0A41F288328F
:105AB80002FB03F3FB60FB685A1EFA60002B02D15D
:105AC8004FF000431BE07B685B6BBB60BB6803F077
